{
  "contractName": "CommentLib",
  "abi": [
    {
      "constant": true,
      "inputs": [
        {
          "internalType": "string",
          "name": "",
          "type": "string"
        }
      ],
      "name": "comments",
      "outputs": [
        {
          "internalType": "address",
          "name": "",
          "type": "address"
        }
      ],
      "payable": false,
      "stateMutability": "view",
      "type": "function"
    },
    {
      "constant": false,
      "inputs": [
        {
          "internalType": "string",
          "name": "_commentId",
          "type": "string"
        }
      ],
      "name": "createComment",
      "outputs": [],
      "payable": false,
      "stateMutability": "nonpayable",
      "type": "function"
    },
    {
      "constant": true,
      "inputs": [
        {
          "internalType": "string",
          "name": "_commentId",
          "type": "string"
        }
      ],
      "name": "getComment",
      "outputs": [
        {
          "internalType": "address",
          "name": "",
          "type": "address"
        }
      ],
      "payable": false,
      "stateMutability": "view",
      "type": "function"
    }
  ],
  "bytecode": "0x608060405234801561001057600080fd5b506114fb806100206000396000f3fe608060405234801561001057600080fd5b50600436106100415760003560e01c806371f13071146100465780637fb6ea1214610101578063cbbaa589146101fc575b600080fd5b6100ff6004803603602081101561005c57600080fd5b810190808035906020019064010000000081111561007957600080fd5b82018360208201111561008b57600080fd5b803590602001918460018302840111640100000000831117156100ad57600080fd5b91908080601f016020809104026020016040519081016040528093929190818152602001838380828437600081840152601f19601f8201169050808301925050505050505091929192905050506102f7565b005b6101ba6004803603602081101561011757600080fd5b810190808035906020019064010000000081111561013457600080fd5b82018360208201111561014657600080fd5b8035906020019184600183028401116401000000008311171561016857600080fd5b91908080601f016020809104026020016040519081016040528093929190818152602001838380828437600081840152601f19601f8201169050808301925050505050505091929192905050506104c4565b604051808273ffffffffffffffffffffffffffffffffffffffff1673ffffffffffffffffffffffffffffffffffffffff16815260200191505060405180910390f35b6102b56004803603602081101561021257600080fd5b810190808035906020019064010000000081111561022f57600080fd5b82018360208201111561024157600080fd5b8035906020019184600183028401116401000000008311171561026357600080fd5b91908080601f016020809104026020016040519081016040528093929190818152602001838380828437600081840152601f19601f82011690508083019250505050505050919291929050505061050d565b604051808273ffffffffffffffffffffffffffffffffffffffff1673ffffffffffffffffffffffffffffffffffffffff16815260200191505060405180910390f35b600073ffffffffffffffffffffffffffffffffffffffff166000826040518082805190602001908083835b602083106103455780518252602082019150602081019050602083039250610322565b6001836020036101000a038019825116818451168082178552505050505050905001915050908152602001604051809103902060009054906101000a900473ffffffffffffffffffffffffffffffffffffffff1673ffffffffffffffffffffffffffffffffffffffff16146103b9576104c1565b336040516103c69061059f565b808273ffffffffffffffffffffffffffffffffffffffff1673ffffffffffffffffffffffffffffffffffffffff168152602001915050604051809103906000f080158015610418573d6000803e3d6000fd5b506000826040518082805190602001908083835b6020831061044f578051825260208201915060208101905060208303925061042c565b6001836020036101000a038019825116818451168082178552505050505050905001915050908152602001604051809103902060006101000a81548173ffffffffffffffffffffffffffffffffffffffff021916908373ffffffffffffffffffffffffffffffffffffffff1602179055505b50565b6000818051602081018201805184825260208301602085012081835280955050505050506000915054906101000a900473ffffffffffffffffffffffffffffffffffffffff1681565b600080826040518082805190602001908083835b602083106105445780518252602082019150602081019050602083039250610521565b6001836020036101000a038019825116818451168082178552505050505050905001915050908152602001604051809103902060009054906101000a900473ffffffffffffffffffffffffffffffffffffffff169050919050565b610f1a806105ad8339019056fe608060405262093a80600655604051610f1a380380610f1a8339818101604052602081101561002d57600080fd5b81019080805190602001909291905050503460008190555060006001819055506000600260006101000a81548160ff0219169083600281111561006c57fe5b021790555080600260016101000a81548173ffffffffffffffffffffffffffffffffffffffff021916908373ffffffffffffffffffffffffffffffffffffffff1602179055504260038190555050610e51806100c96000396000f3fe6080604052600436106100a75760003560e01c806394a1bbbb1161006457806394a1bbbb146101c7578063a8df84df146101de578063ad08f49e146101e8578063b90c1dbb14610263578063d1ab45b41461028e578063efb98bcf146102b9576100a7565b8063016e6fa8146100ac5780631780f0d0146100d75780636482133814610102578063775a25e31461013b578063893d20e81461016657806392d7727c146101bd575b600080fd5b3480156100b857600080fd5b506100c16102e4565b6040518082815260200191505060405180910390f35b3480156100e357600080fd5b506100ec6102ed565b6040518082815260200191505060405180910390f35b34801561010e57600080fd5b506101176102fa565b6040518082600181111561012757fe5b60ff16815260200191505060405180910390f35b34801561014757600080fd5b50610150610351565b6040518082815260200191505060405180910390f35b34801561017257600080fd5b5061017b61035f565b604051808273ffffffffffffffffffffffffffffffffffffffff1673ffffffffffffffffffffffffffffffffffffffff16815260200191505060405180910390f35b6101c5610389565b005b3480156101d357600080fd5b506101dc61061d565b005b6101e6610aa3565b005b3480156101f457600080fd5b506102216004803603602081101561020b57600080fd5b8101908080359060200190929190505050610d37565b604051808273ffffffffffffffffffffffffffffffffffffffff1673ffffffffffffffffffffffffffffffffffffffff16815260200191505060405180910390f35b34801561026f57600080fd5b50610278610d73565b6040518082815260200191505060405180910390f35b34801561029a57600080fd5b506102a3610d7d565b6040518082815260200191505060405180910390f35b3480156102c557600080fd5b506102ce610d87565b6040518082815260200191505060405180910390f35b60008054905090565b6000600480549050905090565b6000600560003373ffffffffffffffffffffffffffffffffffffffff1673ffffffffffffffffffffffffffffffffffffffff16815260200190815260200160002060000160019054906101000a900460ff16905090565b600060015460005401905090565b6000600260019054906101000a900473ffffffffffffffffffffffffffffffffffffffff16905090565b600560003373ffffffffffffffffffffffffffffffffffffffff1673ffffffffffffffffffffffffffffffffffffffff16815260200190815260200160002060000160009054906101000a900460ff161561044c576040517f08c379a00000000000000000000000000000000000000000000000000000000081526004018080602001828103825260118152602001807f596f7520616c726561647920766f74656400000000000000000000000000000081525060200191505060405180910390fd5b6000600281111561045957fe5b600260009054906101000a900460ff16600281111561047457fe5b146104e7576040517f08c379a00000000000000000000000000000000000000000000000000000000081526004018080602001828103825260158152602001807f566f74696e6720696e2077726f6e67207374616765000000000000000000000081525060200191505060405180910390fd5b60043390806001815401808255809150509060018203906000526020600020016000909192909190916101000a81548173ffffffffffffffffffffffffffffffffffffffff021916908373ffffffffffffffffffffffffffffffffffffffff1602179055505060405180606001604052806001151581526020016000600181111561056e57fe5b815260200134815250600560003373ffffffffffffffffffffffffffffffffffffffff1673ffffffffffffffffffffffffffffffffffffffff16815260200190815260200160002060008201518160000160006101000a81548160ff02191690831515021790555060208201518160000160016101000a81548160ff021916908360018111156105fa57fe5b021790555060408201518160010155905050346000808282540192505081905550565b6000600281111561062a57fe5b600260009054906101000a900460ff16600281111561064557fe5b146106b8576040517f08c379a00000000000000000000000000000000000000000000000000000000081526004018080602001828103825260158152602001807f566f74696e6720696e2077726f6e67207374616765000000000000000000000081525060200191505060405180910390fd5b600154600054111561089157600060018111156106d157fe5b600560006004600160048054905003815481106106ea57fe5b9060005260206000200160009054906101000a900473ffffffffffffffffffffffffffffffffffffffff1673ffffffffffffffffffffffffffffffffffffffff1673ffffffffffffffffffffffffffffffffffffffff16815260200190815260200160002060000160019054906101000a900460ff16600181111561076b57fe5b141561088c5760046001600480549050038154811061078657fe5b9060005260206000200160009054906101000a900473ffffffffffffffffffffffffffffffffffffffff1673ffffffffffffffffffffffffffffffffffffffff166108fc60005460005460015401600560006004600160048054905003815481106107ed57fe5b9060005260206000200160009054906101000a900473ffffffffffffffffffffffffffffffffffffffff1673ffffffffffffffffffffffffffffffffffffffff1673ffffffffffffffffffffffffffffffffffffffff16815260200190815260200160002060010154028161085e57fe5b049081150290604051600060405180830381858888f1935050505015801561088a573d6000803e3d6000fd5b505b610a59565b60018081111561089d57fe5b600560006004600160048054905003815481106108b657fe5b9060005260206000200160009054906101000a900473ffffffffffffffffffffffffffffffffffffffff1673ffffffffffffffffffffffffffffffffffffffff1673ffffffffffffffffffffffffffffffffffffffff16815260200190815260200160002060000160019054906101000a900460ff16600181111561093757fe5b1415610a585760046001600480549050038154811061095257fe5b9060005260206000200160009054906101000a900473ffffffffffffffffffffffffffffffffffffffff1673ffffffffffffffffffffffffffffffffffffffff166108fc60015460005460015401600560006004600160048054905003815481106109b957fe5b9060005260206000200160009054906101000a900473ffffffffffffffffffffffffffffffffffffffff1673ffffffffffffffffffffffffffffffffffffffff1673ffffffffffffffffffffffffffffffffffffffff168152602001908152602001600020600101540281610a2a57fe5b049081150290604051600060405180830381858888f19350505050158015610a56573d6000803e3d6000fd5b505b5b6004805480919060019003610a6e9190610dcb565b5060006004805490501415610aa15760028060006101000a81548160ff02191690836002811115610a9b57fe5b02179055505b565b600560003373ffffffffffffffffffffffffffffffffffffffff1673ffffffffffffffffffffffffffffffffffffffff16815260200190815260200160002060000160009054906101000a900460ff1615610b66576040517f08c379a00000000000000000000000000000000000000000000000000000000081526004018080602001828103825260118152602001807f596f7520616c726561647920766f74656400000000000000000000000000000081525060200191505060405180910390fd5b60006002811115610b7357fe5b600260009054906101000a900460ff166002811115610b8e57fe5b14610c01576040517f08c379a00000000000000000000000000000000000000000000000000000000081526004018080602001828103825260158152602001807f566f74696e6720696e2077726f6e67207374616765000000000000000000000081525060200191505060405180910390fd5b60043390806001815401808255809150509060018203906000526020600020016000909192909190916101000a81548173ffffffffffffffffffffffffffffffffffffffff021916908373ffffffffffffffffffffffffffffffffffffffff160217905550506040518060600160405280600115158152602001600180811115610c8757fe5b815260200134815250600560003373ffffffffffffffffffffffffffffffffffffffff1673ffffffffffffffffffffffffffffffffffffffff16815260200190815260200160002060008201518160000160006101000a81548160ff02191690831515021790555060208201518160000160016101000a81548160ff02191690836001811115610d1357fe5b02179055506040820151816001015590505034600160008282540192505081905550565b60048181548110610d4457fe5b906000526020600020016000915054906101000a900473ffffffffffffffffffffffffffffffffffffffff1681565b6000600354905090565b6000600154905090565b60008042600654600354010311610dbd576001600260006101000a81548160ff02191690836002811115610db757fe5b02179055505b426006546003540103905090565b815481835581811115610df257818360005260206000209182019101610df19190610df7565b5b505050565b610e1991905b80821115610e15576000816000905550600101610dfd565b5090565b9056fea265627a7a723158203831903eecadfab8b6ed0049fd8f8441ede67e0b035d7ef048c1f7ac407371e864736f6c63430005100032a265627a7a7231582010e08e27ce4a821ce8cdd810c28d93802338a87439e88ea501c88df0384958cf64736f6c63430005100032",
  "source": "pragma solidity 0.5.16;\r\n\r\nimport \"./Comment.sol\";\r\n\r\ncontract CommentLib {\r\n    mapping(string => address) public comments;\r\n\r\n    function createComment(string memory _commentId) public {\r\n        if(comments[_commentId] != address(0x0)) return;\r\n        comments[_commentId] = address (new Comment(msg.sender));\r\n    }\r\n    function getComment(string memory _commentId) public view returns (address){\r\n        //        if(bytes(comments[_commentId]).length < 0) return;\r\n        return comments[_commentId];\r\n    }\r\n}\r\n",
  "sourcePath": "D:/Documents/Kryptografie und Systemsicherheit/tcr_in_github_old/Solidity/contracts/CommentLib.sol",
  "compiler": {
    "name": "solc",
    "version": "0.5.16+commit.9c3226ce.Emscripten.clang"
  },
  "schemaVersion": "3.3.3",
  "updatedAt": "2021-01-07T14:07:46.318Z",
  "networkType": "ethereum",
  "devdoc": {
    "methods": {}
  },
  "userdoc": {
    "methods": {}
  }
}