{
  "contractName": "CommentLib",
  "abi": [
    {
      "constant": true,
      "inputs": [
        {
          "internalType": "string",
          "name": "",
          "type": "string"
        }
      ],
      "name": "comments",
      "outputs": [
        {
          "internalType": "address",
          "name": "",
          "type": "address"
        }
      ],
      "payable": false,
      "stateMutability": "view",
      "type": "function"
    },
    {
      "constant": false,
      "inputs": [
        {
          "internalType": "string",
          "name": "_commentId",
          "type": "string"
        }
      ],
      "name": "createComment",
      "outputs": [],
      "payable": true,
      "stateMutability": "payable",
      "type": "function"
    },
    {
      "constant": true,
      "inputs": [
        {
          "internalType": "string",
          "name": "_commentId",
          "type": "string"
        }
      ],
      "name": "getComment",
      "outputs": [
        {
          "internalType": "address",
          "name": "",
          "type": "address"
        }
      ],
      "payable": false,
      "stateMutability": "view",
      "type": "function"
    }
  ],
  "bytecode": "0x608060405234801561001057600080fd5b50611696806100206000396000f3fe6080604052600436106100345760003560e01c806371f13071146100395780637fb6ea12146100f4578063cbbaa589146101fc575b600080fd5b6100f26004803603602081101561004f57600080fd5b810190808035906020019064010000000081111561006c57600080fd5b82018360208201111561007e57600080fd5b803590602001918460018302840111640100000000831117156100a057600080fd5b91908080601f016020809104026020016040519081016040528093929190818152602001838380828437600081840152601f19601f820116905080830192505050505050509192919290505050610304565b005b34801561010057600080fd5b506101ba6004803603602081101561011757600080fd5b810190808035906020019064010000000081111561013457600080fd5b82018360208201111561014657600080fd5b8035906020019184600183028401116401000000008311171561016857600080fd5b91908080601f016020809104026020016040519081016040528093929190818152602001838380828437600081840152601f19601f8201169050808301925050505050505091929192905050506104d3565b604051808273ffffffffffffffffffffffffffffffffffffffff1673ffffffffffffffffffffffffffffffffffffffff16815260200191505060405180910390f35b34801561020857600080fd5b506102c26004803603602081101561021f57600080fd5b810190808035906020019064010000000081111561023c57600080fd5b82018360208201111561024e57600080fd5b8035906020019184600183028401116401000000008311171561027057600080fd5b91908080601f016020809104026020016040519081016040528093929190818152602001838380828437600081840152601f19601f82011690508083019250505050505050919291929050505061051c565b604051808273ffffffffffffffffffffffffffffffffffffffff1673ffffffffffffffffffffffffffffffffffffffff16815260200191505060405180910390f35b600073ffffffffffffffffffffffffffffffffffffffff166000826040518082805190602001908083835b60208310610352578051825260208201915060208101905060208303925061032f565b6001836020036101000a038019825116818451168082178552505050505050905001915050908152602001604051809103902060009054906101000a900473ffffffffffffffffffffffffffffffffffffffff1673ffffffffffffffffffffffffffffffffffffffff16146103c6576104d0565b34336040516103d4906105ae565b808273ffffffffffffffffffffffffffffffffffffffff1673ffffffffffffffffffffffffffffffffffffffff1681526020019150506040518091039082f080158015610425573d6000803e3d6000fd5b5090506000826040518082805190602001908083835b6020831061045e578051825260208201915060208101905060208303925061043b565b6001836020036101000a038019825116818451168082178552505050505050905001915050908152602001604051809103902060006101000a81548173ffffffffffffffffffffffffffffffffffffffff021916908373ffffffffffffffffffffffffffffffffffffffff1602179055505b50565b6000818051602081018201805184825260208301602085012081835280955050505050506000915054906101000a900473ffffffffffffffffffffffffffffffffffffffff1681565b600080826040518082805190602001908083835b602083106105535780518252602082019150602081019050602083039250610530565b6001836020036101000a038019825116818451168082178552505050505050905001915050908152602001604051809103902060009054906101000a900473ffffffffffffffffffffffffffffffffffffffff169050919050565b6110a6806105bc8339019056fe608060405262093a806006556040516110a63803806110a68339818101604052602081101561002d57600080fd5b81019080805190602001909291905050506000808190555060006001819055506000600260006101000a81548160ff0219169083600281111561006c57fe5b021790555080600260016101000a81548173ffffffffffffffffffffffffffffffffffffffff021916908373ffffffffffffffffffffffffffffffffffffffff1602179055504260038190555060048190806001815401808255809150509060018203906000526020600020016000909192909190916101000a81548173ffffffffffffffffffffffffffffffffffffffff021916908373ffffffffffffffffffffffffffffffffffffffff1602179055505060405180606001604052806001151581526020016000600181111561014057fe5b815260200134815250600560008373ffffffffffffffffffffffffffffffffffffffff1673ffffffffffffffffffffffffffffffffffffffff16815260200190815260200160002060008201518160000160006101000a81548160ff02191690831515021790555060208201518160000160016101000a81548160ff021916908360018111156101cc57fe5b02179055506040820151816001015590505034600080828254019250508190555050610ea9806101fd6000396000f3fe6080604052600436106100c25760003560e01c806394a1bbbb1161007f578063b90c1dbb11610059578063b90c1dbb1461027e578063d1ab45b4146102a9578063efb98bcf146102d4578063fcaa7664146102ff576100c2565b806394a1bbbb146101e2578063a8df84df146101f9578063ad08f49e14610203576100c2565b8063016e6fa8146100c75780631780f0d0146100f2578063648213381461011d578063775a25e314610156578063893d20e81461018157806392d7727c146101d8575b600080fd5b3480156100d357600080fd5b506100dc610338565b6040518082815260200191505060405180910390f35b3480156100fe57600080fd5b50610107610341565b6040518082815260200191505060405180910390f35b34801561012957600080fd5b5061013261034e565b6040518082600181111561014257fe5b60ff16815260200191505060405180910390f35b34801561016257600080fd5b5061016b6103a5565b6040518082815260200191505060405180910390f35b34801561018d57600080fd5b506101966103b3565b604051808273ffffffffffffffffffffffffffffffffffffffff1673ffffffffffffffffffffffffffffffffffffffff16815260200191505060405180910390f35b6101e06103dd565b005b3480156101ee57600080fd5b506101f7610667565b005b610201610aed565b005b34801561020f57600080fd5b5061023c6004803603602081101561022657600080fd5b8101908080359060200190929190505050610d78565b604051808273ffffffffffffffffffffffffffffffffffffffff1673ffffffffffffffffffffffffffffffffffffffff16815260200191505060405180910390f35b34801561028a57600080fd5b50610293610db4565b6040518082815260200191505060405180910390f35b3480156102b557600080fd5b506102be610dbe565b6040518082815260200191505060405180910390f35b3480156102e057600080fd5b506102e9610dc8565b6040518082815260200191505060405180910390f35b34801561030b57600080fd5b50610314610e0c565b6040518082600281111561032457fe5b60ff16815260200191505060405180910390f35b60008054905090565b6000600480549050905090565b6000600560003373ffffffffffffffffffffffffffffffffffffffff1673ffffffffffffffffffffffffffffffffffffffff16815260200190815260200160002060000160019054906101000a900460ff16905090565b600060015460005401905090565b6000600260019054906101000a900473ffffffffffffffffffffffffffffffffffffffff16905090565b600060028111156103ea57fe5b600260009054906101000a900460ff16600281111561040557fe5b14610478576040517f08c379a00000000000000000000000000000000000000000000000000000000081526004018080602001828103825260158152602001807f566f74696e6720696e2077726f6e67207374616765000000000000000000000081525060200191505060405180910390fd5b600560003373ffffffffffffffffffffffffffffffffffffffff1673ffffffffffffffffffffffffffffffffffffffff16815260200190815260200160002060000160009054906101000a900460ff166106055760043390806001815401808255809150509060018203906000526020600020016000909192909190916101000a81548173ffffffffffffffffffffffffffffffffffffffff021916908373ffffffffffffffffffffffffffffffffffffffff1602179055505060405180606001604052806001151581526020016000600181111561055357fe5b815260200134815250600560003373ffffffffffffffffffffffffffffffffffffffff1673ffffffffffffffffffffffffffffffffffffffff16815260200190815260200160002060008201518160000160006101000a81548160ff02191690831515021790555060208201518160000160016101000a81548160ff021916908360018111156105df57fe5b021790555060408201518160010155905050346000808282540192505081905550610665565b34600560003373ffffffffffffffffffffffffffffffffffffffff1673ffffffffffffffffffffffffffffffffffffffff168152602001908152602001600020600101600082825401925050819055503460008082825401925050819055505b565b6000600281111561067457fe5b600260009054906101000a900460ff16600281111561068f57fe5b14610702576040517f08c379a00000000000000000000000000000000000000000000000000000000081526004018080602001828103825260158152602001807f566f74696e6720696e2077726f6e67207374616765000000000000000000000081525060200191505060405180910390fd5b60015460005411156108db576000600181111561071b57fe5b6005600060046001600480549050038154811061073457fe5b9060005260206000200160009054906101000a900473ffffffffffffffffffffffffffffffffffffffff1673ffffffffffffffffffffffffffffffffffffffff1673ffffffffffffffffffffffffffffffffffffffff16815260200190815260200160002060000160019054906101000a900460ff1660018111156107b557fe5b14156108d6576004600160048054905003815481106107d057fe5b9060005260206000200160009054906101000a900473ffffffffffffffffffffffffffffffffffffffff1673ffffffffffffffffffffffffffffffffffffffff166108fc600054600054600154016005600060046001600480549050038154811061083757fe5b9060005260206000200160009054906101000a900473ffffffffffffffffffffffffffffffffffffffff1673ffffffffffffffffffffffffffffffffffffffff1673ffffffffffffffffffffffffffffffffffffffff1681526020019081526020016000206001015402816108a857fe5b049081150290604051600060405180830381858888f193505050501580156108d4573d6000803e3d6000fd5b505b610aa3565b6001808111156108e757fe5b6005600060046001600480549050038154811061090057fe5b9060005260206000200160009054906101000a900473ffffffffffffffffffffffffffffffffffffffff1673ffffffffffffffffffffffffffffffffffffffff1673ffffffffffffffffffffffffffffffffffffffff16815260200190815260200160002060000160019054906101000a900460ff16600181111561098157fe5b1415610aa25760046001600480549050038154811061099c57fe5b9060005260206000200160009054906101000a900473ffffffffffffffffffffffffffffffffffffffff1673ffffffffffffffffffffffffffffffffffffffff166108fc6001546000546001540160056000600460016004805490500381548110610a0357fe5b9060005260206000200160009054906101000a900473ffffffffffffffffffffffffffffffffffffffff1673ffffffffffffffffffffffffffffffffffffffff1673ffffffffffffffffffffffffffffffffffffffff168152602001908152602001600020600101540281610a7457fe5b049081150290604051600060405180830381858888f19350505050158015610aa0573d6000803e3d6000fd5b505b5b6004805480919060019003610ab89190610e23565b5060006004805490501415610aeb5760028060006101000a81548160ff02191690836002811115610ae557fe5b02179055505b565b60006002811115610afa57fe5b600260009054906101000a900460ff166002811115610b1557fe5b14610b88576040517f08c379a00000000000000000000000000000000000000000000000000000000081526004018080602001828103825260158152602001807f566f74696e6720696e2077726f6e67207374616765000000000000000000000081525060200191505060405180910390fd5b600560003373ffffffffffffffffffffffffffffffffffffffff1673ffffffffffffffffffffffffffffffffffffffff16815260200190815260200160002060000160009054906101000a900460ff16610d155760043390806001815401808255809150509060018203906000526020600020016000909192909190916101000a81548173ffffffffffffffffffffffffffffffffffffffff021916908373ffffffffffffffffffffffffffffffffffffffff160217905550506040518060600160405280600115158152602001600180811115610c6257fe5b815260200134815250600560003373ffffffffffffffffffffffffffffffffffffffff1673ffffffffffffffffffffffffffffffffffffffff16815260200190815260200160002060008201518160000160006101000a81548160ff02191690831515021790555060208201518160000160016101000a81548160ff02191690836001811115610cee57fe5b02179055506040820151816001015590505034600160008282540192505081905550610d76565b34600560003373ffffffffffffffffffffffffffffffffffffffff1673ffffffffffffffffffffffffffffffffffffffff16815260200190815260200160002060010160008282540192505081905550346001600082825401925050819055505b565b60048181548110610d8557fe5b906000526020600020016000915054906101000a900473ffffffffffffffffffffffffffffffffffffffff1681565b6000600354905090565b6000600154905090565b60008042600654600354010311610dfe576001600260006101000a81548160ff02191690836002811115610df857fe5b02179055505b426006546003540103905090565b6000600260009054906101000a900460ff16905090565b815481835581811115610e4a57818360005260206000209182019101610e499190610e4f565b5b505050565b610e7191905b80821115610e6d576000816000905550600101610e55565b5090565b9056fea265627a7a72315820d6365a575801b20985bd4061078cdf29b4529fc6c2e1e7b41cd7ed7a3ebd17de64736f6c63430005100032a265627a7a72315820ec6ad13a4514ac73dc3ea99eecd377a9a02aaaa18b3806ee092f0ebc968b382664736f6c63430005100032",
  "source": "pragma solidity 0.5.16;\r\n\r\nimport \"./Comment.sol\";\r\n\r\ncontract CommentLib {\r\n    mapping(string => address) public comments;\r\n\r\n    function createComment(string memory _commentId) public payable{\r\n        if(comments[_commentId] != address(0x0)) return;\r\n        comments[_commentId] = address ((new Comment).value(msg.value)(msg.sender)) ;\r\n    }\r\n    function getComment(string memory _commentId) public view returns (address){\r\n        //        if(bytes(comments[_commentId]).length < 0) return;\r\n        return comments[_commentId];\r\n    }\r\n}\r\n",
  "sourcePath": "D:/Documents/Kryptografie und Systemsicherheit/tcr_in_github_old/Solidity/contracts/CommentLib.sol",
  "compiler": {
    "name": "solc",
    "version": "0.5.16+commit.9c3226ce.Emscripten.clang"
  },
  "schemaVersion": "3.3.3",
  "updatedAt": "2021-01-28T11:59:57.334Z",
  "networkType": "ethereum",
  "devdoc": {
    "methods": {}
  },
  "userdoc": {
    "methods": {}
  }
}