{
  "contractName": "Comment",
  "abi": [
    {
      "inputs": [
        {
          "internalType": "address payable",
          "name": "_creator",
          "type": "address"
        }
      ],
      "payable": true,
      "stateMutability": "payable",
      "type": "constructor"
    },
    {
      "constant": true,
      "inputs": [
        {
          "internalType": "uint256",
          "name": "",
          "type": "uint256"
        }
      ],
      "name": "votesLUT",
      "outputs": [
        {
          "internalType": "address",
          "name": "",
          "type": "address"
        }
      ],
      "payable": false,
      "stateMutability": "view",
      "type": "function"
    },
    {
      "constant": false,
      "inputs": [],
      "name": "upvote",
      "outputs": [],
      "payable": true,
      "stateMutability": "payable",
      "type": "function"
    },
    {
      "constant": false,
      "inputs": [],
      "name": "downvote",
      "outputs": [],
      "payable": true,
      "stateMutability": "payable",
      "type": "function"
    },
    {
      "constant": false,
      "inputs": [],
      "name": "payoutSingleRecipient",
      "outputs": [],
      "payable": false,
      "stateMutability": "nonpayable",
      "type": "function"
    },
    {
      "constant": true,
      "inputs": [],
      "name": "getRemaingRecipientCount",
      "outputs": [
        {
          "internalType": "uint256",
          "name": "",
          "type": "uint256"
        }
      ],
      "payable": false,
      "stateMutability": "view",
      "type": "function"
    },
    {
      "constant": true,
      "inputs": [],
      "name": "getTotalUp",
      "outputs": [
        {
          "internalType": "uint256",
          "name": "",
          "type": "uint256"
        }
      ],
      "payable": false,
      "stateMutability": "view",
      "type": "function"
    },
    {
      "constant": true,
      "inputs": [],
      "name": "getTotalDown",
      "outputs": [
        {
          "internalType": "uint256",
          "name": "",
          "type": "uint256"
        }
      ],
      "payable": false,
      "stateMutability": "view",
      "type": "function"
    },
    {
      "constant": true,
      "inputs": [],
      "name": "getTotal",
      "outputs": [
        {
          "internalType": "uint256",
          "name": "",
          "type": "uint256"
        }
      ],
      "payable": false,
      "stateMutability": "view",
      "type": "function"
    },
    {
      "constant": true,
      "inputs": [],
      "name": "getOwner",
      "outputs": [
        {
          "internalType": "address",
          "name": "",
          "type": "address"
        }
      ],
      "payable": false,
      "stateMutability": "view",
      "type": "function"
    },
    {
      "constant": true,
      "inputs": [],
      "name": "getCreationDate",
      "outputs": [
        {
          "internalType": "uint256",
          "name": "",
          "type": "uint256"
        }
      ],
      "payable": false,
      "stateMutability": "view",
      "type": "function"
    },
    {
      "constant": true,
      "inputs": [],
      "name": "getRemainingTime",
      "outputs": [
        {
          "internalType": "uint256",
          "name": "",
          "type": "uint256"
        }
      ],
      "payable": false,
      "stateMutability": "view",
      "type": "function"
    }
  ],
  "bytecode": "0x608060405262093a806006556040516109ed3803806109ed8339818101604052602081101561002d57600080fd5b81019080805190602001909291905050503460008190555060006001819055506000600260006101000a81548160ff0219169083600281111561006c57fe5b021790555080600260016101000a81548173ffffffffffffffffffffffffffffffffffffffff021916908373ffffffffffffffffffffffffffffffffffffffff1602179055504260038190555050610924806100c96000396000f3fe60806040526004361061009c5760003560e01c806394a1bbbb1161006457806394a1bbbb14610183578063a8df84df1461019a578063ad08f49e146101a4578063b90c1dbb1461021f578063d1ab45b41461024a578063efb98bcf146102755761009c565b8063016e6fa8146100a15780631780f0d0146100cc578063775a25e3146100f7578063893d20e81461012257806392d7727c14610179575b600080fd5b3480156100ad57600080fd5b506100b66102a0565b6040518082815260200191505060405180910390f35b3480156100d857600080fd5b506100e16102a9565b6040518082815260200191505060405180910390f35b34801561010357600080fd5b5061010c6102b6565b6040518082815260200191505060405180910390f35b34801561012e57600080fd5b506101376102c4565b604051808273ffffffffffffffffffffffffffffffffffffffff1673ffffffffffffffffffffffffffffffffffffffff16815260200191505060405180910390f35b6101816102ee565b005b34801561018f57600080fd5b506101986104e7565b005b6101a2610645565b005b3480156101b057600080fd5b506101dd600480360360208110156101c757600080fd5b810190808035906020019092919050505061083e565b604051808273ffffffffffffffffffffffffffffffffffffffff1673ffffffffffffffffffffffffffffffffffffffff16815260200191505060405180910390f35b34801561022b57600080fd5b5061023461087a565b6040518082815260200191505060405180910390f35b34801561025657600080fd5b5061025f610884565b6040518082815260200191505060405180910390f35b34801561028157600080fd5b5061028a61088e565b6040518082815260200191505060405180910390f35b60008054905090565b6000600480549050905090565b600060015460005401905090565b6000600260019054906101000a900473ffffffffffffffffffffffffffffffffffffffff16905090565b600560003373ffffffffffffffffffffffffffffffffffffffff1673ffffffffffffffffffffffffffffffffffffffff16815260200190815260200160002060000160009054906101000a900460ff16156103b1576040517f08c379a00000000000000000000000000000000000000000000000000000000081526004018080602001828103825260118152602001807f596f7520616c726561647920766f74656400000000000000000000000000000081525060200191505060405180910390fd5b60043390806001815401808255809150509060018203906000526020600020016000909192909190916101000a81548173ffffffffffffffffffffffffffffffffffffffff021916908373ffffffffffffffffffffffffffffffffffffffff1602179055505060405180606001604052806001151581526020016000600181111561043857fe5b815260200134815250600560003373ffffffffffffffffffffffffffffffffffffffff1673ffffffffffffffffffffffffffffffffffffffff16815260200190815260200160002060008201518160000160006101000a81548160ff02191690831515021790555060208201518160000160016101000a81548160ff021916908360018111156104c457fe5b021790555060408201518160010155905050346000808282540192505081905550565b6000600154600054111561050e57600054600054600154018161050657fe5b049050610523565b600154600054600154018161051f57fe5b0490505b60046001600480549050038154811061053857fe5b9060005260206000200160009054906101000a900473ffffffffffffffffffffffffffffffffffffffff1673ffffffffffffffffffffffffffffffffffffffff166108fc826005600060046001600480549050038154811061059657fe5b9060005260206000200160009054906101000a900473ffffffffffffffffffffffffffffffffffffffff1673ffffffffffffffffffffffffffffffffffffffff1673ffffffffffffffffffffffffffffffffffffffff16815260200190815260200160002060010154029081150290604051600060405180830381858888f1935050505015801561062b573d6000803e3d6000fd5b506004805480919060019003610641919061089e565b5050565b600560003373ffffffffffffffffffffffffffffffffffffffff1673ffffffffffffffffffffffffffffffffffffffff16815260200190815260200160002060000160009054906101000a900460ff1615610708576040517f08c379a00000000000000000000000000000000000000000000000000000000081526004018080602001828103825260118152602001807f596f7520616c726561647920766f74656400000000000000000000000000000081525060200191505060405180910390fd5b60043390806001815401808255809150509060018203906000526020600020016000909192909190916101000a81548173ffffffffffffffffffffffffffffffffffffffff021916908373ffffffffffffffffffffffffffffffffffffffff16021790555050604051806060016040528060011515815260200160018081111561078e57fe5b815260200134815250600560003373ffffffffffffffffffffffffffffffffffffffff1673ffffffffffffffffffffffffffffffffffffffff16815260200190815260200160002060008201518160000160006101000a81548160ff02191690831515021790555060208201518160000160016101000a81548160ff0219169083600181111561081a57fe5b02179055506040820151816001015590505034600160008282540192505081905550565b6004818154811061084b57fe5b906000526020600020016000915054906101000a900473ffffffffffffffffffffffffffffffffffffffff1681565b6000600354905090565b6000600154905090565b6000426006546003540103905090565b8154818355818111156108c5578183600052602060002091820191016108c491906108ca565b5b505050565b6108ec91905b808211156108e85760008160009055506001016108d0565b5090565b9056fea265627a7a723158200cbbbbb7cd133a2338c81d7a1f45deaa6b69be8fddc3844e685821a5e2c3b95e64736f6c63430005100032",
  "source": "pragma solidity 0.5.16;\r\n\r\ncontract Comment {\r\n\r\n    enum Stage{INIT, OPEN, CLOSED}\r\n    enum Favor{UP, DOWN}\r\n\r\n    uint private totalUp;\r\n    uint private totalDown;\r\n    Stage private stage;\r\n    address payable private creator;\r\n    uint256 private creationDate;\r\n\r\n    address[] public votesLUT;\r\n    mapping(address => Vote) private votes;\r\n    uint256 private initDuration = 24*60*60*7;\r\n\r\n\r\n    struct Vote{\r\n        bool exists;\r\n        Favor decision;\r\n        uint stake;\r\n    }\r\n\r\n    constructor (address payable _creator) public payable{\r\n        totalUp = msg.value;\r\n        totalDown = 0;\r\n        stage = Stage.INIT;\r\n        creator = _creator;\r\n        creationDate = block.timestamp;\r\n//        address(uint160(address(this))).transfer(msg.value);\r\n    }\r\n    function upvote() public payable{\r\n        require(!votes[msg.sender].exists, \"You already voted\");\r\n        votesLUT.push(msg.sender);\r\n        votes[msg.sender] = Vote(true, Favor.UP, msg.value);\r\n        totalUp += msg.value;\r\n    }\r\n    function downvote() public payable{\r\n        require(!votes[msg.sender].exists, \"You already voted\");\r\n        votesLUT.push(msg.sender);\r\n        votes[msg.sender] = Vote(true, Favor.DOWN, msg.value);\r\n        totalDown += msg.value;\r\n    }\r\n    function payoutSingleRecipient() public{\r\n        uint fraction;\r\n        if(totalUp > totalDown){\r\n            fraction = (totalDown+totalUp)/totalUp;\r\n        }\r\n        else{\r\n            fraction = (totalDown+totalUp)/totalDown;\r\n        }\r\n        address(uint160(votesLUT[votesLUT.length-1])).transfer(votes[votesLUT[votesLUT.length-1]].stake * fraction);\r\n        votesLUT.length--;\r\n    }\r\n    function getRemaingRecipientCount() public view returns(uint) {\r\n        return votesLUT.length;\r\n    }\r\n    function getTotalUp() external view returns (uint) {\r\n        return totalUp;\r\n    }\r\n    function getTotalDown() external view returns (uint) {\r\n        return totalDown;\r\n    }\r\n    function getTotal() external view returns (uint) {\r\n        return totalUp + totalDown;\r\n    }\r\n    function getOwner() external view returns (address){\r\n        return creator;\r\n    }\r\n    function getCreationDate() external view returns (uint256){\r\n        return creationDate;\r\n    }\r\n    function getRemainingTime() external view returns (uint256){\r\n        return creationDate+initDuration-now;\r\n    }\r\n}\r\n",
  "sourcePath": "D:\\Documents\\Kryptografie und Systemsicherheit\\tcr_in_github_old\\Solidity\\contracts\\Comment.sol",
  "compiler": {
    "name": "solc",
    "version": "0.5.16+commit.9c3226ce.Emscripten.clang"
  },
  "schemaVersion": "3.3.3",
  "updatedAt": "2021-01-06T12:30:10.717Z",
  "devdoc": {
    "methods": {}
  },
  "userdoc": {
    "methods": {}
  }
}