{
  "contractName": "Comment",
  "abi": [
    {
      "inputs": [
        {
          "internalType": "address payable",
          "name": "_creator",
          "type": "address"
        }
      ],
      "payable": true,
      "stateMutability": "payable",
      "type": "constructor"
    },
    {
      "constant": true,
      "inputs": [
        {
          "internalType": "uint256",
          "name": "",
          "type": "uint256"
        }
      ],
      "name": "votesLUT",
      "outputs": [
        {
          "internalType": "address",
          "name": "",
          "type": "address"
        }
      ],
      "payable": false,
      "stateMutability": "view",
      "type": "function"
    },
    {
      "constant": false,
      "inputs": [],
      "name": "upvote",
      "outputs": [],
      "payable": true,
      "stateMutability": "payable",
      "type": "function"
    },
    {
      "constant": false,
      "inputs": [],
      "name": "downvote",
      "outputs": [],
      "payable": true,
      "stateMutability": "payable",
      "type": "function"
    },
    {
      "constant": false,
      "inputs": [],
      "name": "payoutSingleRecipient",
      "outputs": [],
      "payable": false,
      "stateMutability": "nonpayable",
      "type": "function"
    },
    {
      "constant": true,
      "inputs": [],
      "name": "getRemaingRecipientCount",
      "outputs": [
        {
          "internalType": "uint256",
          "name": "",
          "type": "uint256"
        }
      ],
      "payable": false,
      "stateMutability": "view",
      "type": "function"
    },
    {
      "constant": true,
      "inputs": [],
      "name": "getTotalUp",
      "outputs": [
        {
          "internalType": "uint256",
          "name": "",
          "type": "uint256"
        }
      ],
      "payable": false,
      "stateMutability": "view",
      "type": "function"
    },
    {
      "constant": true,
      "inputs": [],
      "name": "getTotalDown",
      "outputs": [
        {
          "internalType": "uint256",
          "name": "",
          "type": "uint256"
        }
      ],
      "payable": false,
      "stateMutability": "view",
      "type": "function"
    },
    {
      "constant": true,
      "inputs": [],
      "name": "getTotal",
      "outputs": [
        {
          "internalType": "uint256",
          "name": "",
          "type": "uint256"
        }
      ],
      "payable": false,
      "stateMutability": "view",
      "type": "function"
    },
    {
      "constant": true,
      "inputs": [],
      "name": "getOwner",
      "outputs": [
        {
          "internalType": "address",
          "name": "",
          "type": "address"
        }
      ],
      "payable": false,
      "stateMutability": "view",
      "type": "function"
    },
    {
      "constant": true,
      "inputs": [],
      "name": "getCreationDate",
      "outputs": [
        {
          "internalType": "uint256",
          "name": "",
          "type": "uint256"
        }
      ],
      "payable": false,
      "stateMutability": "view",
      "type": "function"
    },
    {
      "constant": true,
      "inputs": [],
      "name": "getStage",
      "outputs": [
        {
          "internalType": "enum Comment.Stage",
          "name": "",
          "type": "uint8"
        }
      ],
      "payable": false,
      "stateMutability": "view",
      "type": "function"
    },
    {
      "constant": false,
      "inputs": [],
      "name": "getRemainingTime",
      "outputs": [
        {
          "internalType": "uint256",
          "name": "",
          "type": "uint256"
        }
      ],
      "payable": false,
      "stateMutability": "nonpayable",
      "type": "function"
    },
    {
      "constant": false,
      "inputs": [],
      "name": "hasVoted",
      "outputs": [
        {
          "internalType": "enum Comment.Favor",
          "name": "",
          "type": "uint8"
        }
      ],
      "payable": false,
      "stateMutability": "nonpayable",
      "type": "function"
    }
  ],
  "bytecode": "0x608060405262093a806006556040516110a63803806110a68339818101604052602081101561002d57600080fd5b81019080805190602001909291905050506000808190555060006001819055506000600260006101000a81548160ff0219169083600281111561006c57fe5b021790555080600260016101000a81548173ffffffffffffffffffffffffffffffffffffffff021916908373ffffffffffffffffffffffffffffffffffffffff1602179055504260038190555060048190806001815401808255809150509060018203906000526020600020016000909192909190916101000a81548173ffffffffffffffffffffffffffffffffffffffff021916908373ffffffffffffffffffffffffffffffffffffffff1602179055505060405180606001604052806001151581526020016000600181111561014057fe5b815260200134815250600560008373ffffffffffffffffffffffffffffffffffffffff1673ffffffffffffffffffffffffffffffffffffffff16815260200190815260200160002060008201518160000160006101000a81548160ff02191690831515021790555060208201518160000160016101000a81548160ff021916908360018111156101cc57fe5b02179055506040820151816001015590505034600080828254019250508190555050610ea9806101fd6000396000f3fe6080604052600436106100c25760003560e01c806394a1bbbb1161007f578063b90c1dbb11610059578063b90c1dbb1461027e578063d1ab45b4146102a9578063efb98bcf146102d4578063fcaa7664146102ff576100c2565b806394a1bbbb146101e2578063a8df84df146101f9578063ad08f49e14610203576100c2565b8063016e6fa8146100c75780631780f0d0146100f2578063648213381461011d578063775a25e314610156578063893d20e81461018157806392d7727c146101d8575b600080fd5b3480156100d357600080fd5b506100dc610338565b6040518082815260200191505060405180910390f35b3480156100fe57600080fd5b50610107610341565b6040518082815260200191505060405180910390f35b34801561012957600080fd5b5061013261034e565b6040518082600181111561014257fe5b60ff16815260200191505060405180910390f35b34801561016257600080fd5b5061016b6103a5565b6040518082815260200191505060405180910390f35b34801561018d57600080fd5b506101966103b3565b604051808273ffffffffffffffffffffffffffffffffffffffff1673ffffffffffffffffffffffffffffffffffffffff16815260200191505060405180910390f35b6101e06103dd565b005b3480156101ee57600080fd5b506101f7610667565b005b610201610aed565b005b34801561020f57600080fd5b5061023c6004803603602081101561022657600080fd5b8101908080359060200190929190505050610d78565b604051808273ffffffffffffffffffffffffffffffffffffffff1673ffffffffffffffffffffffffffffffffffffffff16815260200191505060405180910390f35b34801561028a57600080fd5b50610293610db4565b6040518082815260200191505060405180910390f35b3480156102b557600080fd5b506102be610dbe565b6040518082815260200191505060405180910390f35b3480156102e057600080fd5b506102e9610dc8565b6040518082815260200191505060405180910390f35b34801561030b57600080fd5b50610314610e0c565b6040518082600281111561032457fe5b60ff16815260200191505060405180910390f35b60008054905090565b6000600480549050905090565b6000600560003373ffffffffffffffffffffffffffffffffffffffff1673ffffffffffffffffffffffffffffffffffffffff16815260200190815260200160002060000160019054906101000a900460ff16905090565b600060015460005401905090565b6000600260019054906101000a900473ffffffffffffffffffffffffffffffffffffffff16905090565b600060028111156103ea57fe5b600260009054906101000a900460ff16600281111561040557fe5b14610478576040517f08c379a00000000000000000000000000000000000000000000000000000000081526004018080602001828103825260158152602001807f566f74696e6720696e2077726f6e67207374616765000000000000000000000081525060200191505060405180910390fd5b600560003373ffffffffffffffffffffffffffffffffffffffff1673ffffffffffffffffffffffffffffffffffffffff16815260200190815260200160002060000160009054906101000a900460ff166106055760043390806001815401808255809150509060018203906000526020600020016000909192909190916101000a81548173ffffffffffffffffffffffffffffffffffffffff021916908373ffffffffffffffffffffffffffffffffffffffff1602179055505060405180606001604052806001151581526020016000600181111561055357fe5b815260200134815250600560003373ffffffffffffffffffffffffffffffffffffffff1673ffffffffffffffffffffffffffffffffffffffff16815260200190815260200160002060008201518160000160006101000a81548160ff02191690831515021790555060208201518160000160016101000a81548160ff021916908360018111156105df57fe5b021790555060408201518160010155905050346000808282540192505081905550610665565b34600560003373ffffffffffffffffffffffffffffffffffffffff1673ffffffffffffffffffffffffffffffffffffffff168152602001908152602001600020600101600082825401925050819055503460008082825401925050819055505b565b6000600281111561067457fe5b600260009054906101000a900460ff16600281111561068f57fe5b14610702576040517f08c379a00000000000000000000000000000000000000000000000000000000081526004018080602001828103825260158152602001807f566f74696e6720696e2077726f6e67207374616765000000000000000000000081525060200191505060405180910390fd5b60015460005411156108db576000600181111561071b57fe5b6005600060046001600480549050038154811061073457fe5b9060005260206000200160009054906101000a900473ffffffffffffffffffffffffffffffffffffffff1673ffffffffffffffffffffffffffffffffffffffff1673ffffffffffffffffffffffffffffffffffffffff16815260200190815260200160002060000160019054906101000a900460ff1660018111156107b557fe5b14156108d6576004600160048054905003815481106107d057fe5b9060005260206000200160009054906101000a900473ffffffffffffffffffffffffffffffffffffffff1673ffffffffffffffffffffffffffffffffffffffff166108fc600054600054600154016005600060046001600480549050038154811061083757fe5b9060005260206000200160009054906101000a900473ffffffffffffffffffffffffffffffffffffffff1673ffffffffffffffffffffffffffffffffffffffff1673ffffffffffffffffffffffffffffffffffffffff1681526020019081526020016000206001015402816108a857fe5b049081150290604051600060405180830381858888f193505050501580156108d4573d6000803e3d6000fd5b505b610aa3565b6001808111156108e757fe5b6005600060046001600480549050038154811061090057fe5b9060005260206000200160009054906101000a900473ffffffffffffffffffffffffffffffffffffffff1673ffffffffffffffffffffffffffffffffffffffff1673ffffffffffffffffffffffffffffffffffffffff16815260200190815260200160002060000160019054906101000a900460ff16600181111561098157fe5b1415610aa25760046001600480549050038154811061099c57fe5b9060005260206000200160009054906101000a900473ffffffffffffffffffffffffffffffffffffffff1673ffffffffffffffffffffffffffffffffffffffff166108fc6001546000546001540160056000600460016004805490500381548110610a0357fe5b9060005260206000200160009054906101000a900473ffffffffffffffffffffffffffffffffffffffff1673ffffffffffffffffffffffffffffffffffffffff1673ffffffffffffffffffffffffffffffffffffffff168152602001908152602001600020600101540281610a7457fe5b049081150290604051600060405180830381858888f19350505050158015610aa0573d6000803e3d6000fd5b505b5b6004805480919060019003610ab89190610e23565b5060006004805490501415610aeb5760028060006101000a81548160ff02191690836002811115610ae557fe5b02179055505b565b60006002811115610afa57fe5b600260009054906101000a900460ff166002811115610b1557fe5b14610b88576040517f08c379a00000000000000000000000000000000000000000000000000000000081526004018080602001828103825260158152602001807f566f74696e6720696e2077726f6e67207374616765000000000000000000000081525060200191505060405180910390fd5b600560003373ffffffffffffffffffffffffffffffffffffffff1673ffffffffffffffffffffffffffffffffffffffff16815260200190815260200160002060000160009054906101000a900460ff16610d155760043390806001815401808255809150509060018203906000526020600020016000909192909190916101000a81548173ffffffffffffffffffffffffffffffffffffffff021916908373ffffffffffffffffffffffffffffffffffffffff160217905550506040518060600160405280600115158152602001600180811115610c6257fe5b815260200134815250600560003373ffffffffffffffffffffffffffffffffffffffff1673ffffffffffffffffffffffffffffffffffffffff16815260200190815260200160002060008201518160000160006101000a81548160ff02191690831515021790555060208201518160000160016101000a81548160ff02191690836001811115610cee57fe5b02179055506040820151816001015590505034600160008282540192505081905550610d76565b34600560003373ffffffffffffffffffffffffffffffffffffffff1673ffffffffffffffffffffffffffffffffffffffff16815260200190815260200160002060010160008282540192505081905550346001600082825401925050819055505b565b60048181548110610d8557fe5b906000526020600020016000915054906101000a900473ffffffffffffffffffffffffffffffffffffffff1681565b6000600354905090565b6000600154905090565b60008042600654600354010311610dfe576001600260006101000a81548160ff02191690836002811115610df857fe5b02179055505b426006546003540103905090565b6000600260009054906101000a900460ff16905090565b815481835581811115610e4a57818360005260206000209182019101610e499190610e4f565b5b505050565b610e7191905b80821115610e6d576000816000905550600101610e55565b5090565b9056fea265627a7a72315820d6365a575801b20985bd4061078cdf29b4529fc6c2e1e7b41cd7ed7a3ebd17de64736f6c63430005100032",
  "source": "pragma solidity 0.5.16;\r\n\r\ncontract Comment {\r\n\r\n    enum Stage{INIT, OPEN, CLOSED}\r\n    enum Favor{UP, DOWN}\r\n\r\n    uint private totalUp;\r\n    uint private totalDown;\r\n    Stage private stage;\r\n    address payable private creator;\r\n    uint256 private creationDate;\r\n\r\n    address[] public votesLUT;\r\n    mapping(address => Vote) private votes;\r\n    uint256 private initDuration = 24*60*60*7;\r\n\r\n\r\n    struct Vote{\r\n        bool exists;\r\n        Favor decision;\r\n        uint stake;\r\n    }\r\n\r\n    constructor (address payable _creator) public payable{\r\n        totalUp = 0;\r\n        totalDown = 0;\r\n        stage = Stage.INIT;\r\n        creator = _creator;\r\n        creationDate = block.timestamp;\r\n//        address(uint160(address(this))).transfer(msg.value);\r\n        votesLUT.push(_creator);\r\n        votes[_creator] = Vote(true, Favor.UP, msg.value);\r\n        totalUp += msg.value;\r\n    }\r\n    function upvote() public payable{\r\n        require(stage == Stage.INIT, \"Voting in wrong stage\");\r\n        if(!votes[msg.sender].exists){\r\n            votesLUT.push(msg.sender);\r\n            votes[msg.sender] = Vote(true, Favor.UP, msg.value);\r\n            totalUp += msg.value;\r\n        }\r\n        else{\r\n            votes[msg.sender].stake += msg.value;\r\n            totalUp += msg.value;\r\n        }\r\n\r\n    }\r\n    function downvote() public payable{\r\n        require(stage == Stage.INIT, \"Voting in wrong stage\");\r\n        if(!votes[msg.sender].exists){\r\n            votesLUT.push(msg.sender);\r\n            votes[msg.sender] = Vote(true, Favor.DOWN, msg.value);\r\n            totalDown += msg.value;\r\n        }\r\n        else{\r\n            votes[msg.sender].stake += msg.value;\r\n            totalDown += msg.value;\r\n        }\r\n\r\n    }\r\n    function payoutSingleRecipient() public{\r\n        require(stage == Stage.INIT, \"Voting in wrong stage\");\r\n        if(totalUp > totalDown){\r\n            if(votes[votesLUT[votesLUT.length-1]].decision == Favor.UP){\r\n                address(uint160(votesLUT[votesLUT.length-1])).transfer(votes[votesLUT[votesLUT.length-1]].stake * (totalDown+totalUp)/totalUp);\r\n            }\r\n        }\r\n        else{\r\n            if(votes[votesLUT[votesLUT.length-1]].decision == Favor.DOWN){\r\n                address(uint160(votesLUT[votesLUT.length-1])).transfer(votes[votesLUT[votesLUT.length-1]].stake * (totalDown+totalUp)/totalDown);\r\n            }\r\n        }\r\n        votesLUT.length--;\r\n        if(votesLUT.length == 0){\r\n            stage = Stage.CLOSED;\r\n        }\r\n    }\r\n    function getRemaingRecipientCount() public view returns(uint) {\r\n        return votesLUT.length;\r\n    }\r\n    function getTotalUp() external view returns (uint) {\r\n        return totalUp;\r\n    }\r\n    function getTotalDown() external view returns (uint) {\r\n        return totalDown;\r\n    }\r\n    function getTotal() external view returns (uint) {\r\n        return totalUp + totalDown;\r\n    }\r\n    function getOwner() external view returns (address){\r\n        return creator;\r\n    }\r\n    function getCreationDate() external view returns (uint256){\r\n        return creationDate;\r\n    }\r\n    function getStage() external view returns (Stage){\r\n        return stage;\r\n    }\r\n    function getRemainingTime() external returns (uint256){\r\n        if(creationDate+initDuration-now <= 0){\r\n            stage = Stage.OPEN;\r\n        }\r\n        return creationDate+initDuration-now;\r\n    }\r\n    function hasVoted() external returns (Favor){\r\n        return votes[msg.sender].decision;\r\n    }\r\n}\r\n",
  "sourcePath": "D:\\Documents\\Kryptografie und Systemsicherheit\\tcr_in_github_old\\Solidity\\contracts\\Comment.sol",
  "compiler": {
    "name": "solc",
    "version": "0.5.16+commit.9c3226ce.Emscripten.clang"
  },
  "schemaVersion": "3.3.3",
  "updatedAt": "2021-01-28T11:59:44.642Z",
  "devdoc": {
    "methods": {}
  },
  "userdoc": {
    "methods": {}
  }
}