{
  "contractName": "Comment",
  "abi": [
    {
      "inputs": [
        {
          "internalType": "address payable",
          "name": "_creator",
          "type": "address"
        }
      ],
      "payable": true,
      "stateMutability": "payable",
      "type": "constructor"
    },
    {
      "constant": true,
      "inputs": [
        {
          "internalType": "uint256",
          "name": "",
          "type": "uint256"
        }
      ],
      "name": "votesLUT",
      "outputs": [
        {
          "internalType": "address",
          "name": "",
          "type": "address"
        }
      ],
      "payable": false,
      "stateMutability": "view",
      "type": "function"
    },
    {
      "constant": false,
      "inputs": [],
      "name": "upvote",
      "outputs": [],
      "payable": true,
      "stateMutability": "payable",
      "type": "function"
    },
    {
      "constant": false,
      "inputs": [],
      "name": "downvote",
      "outputs": [],
      "payable": true,
      "stateMutability": "payable",
      "type": "function"
    },
    {
      "constant": false,
      "inputs": [],
      "name": "payoutSingleRecipient",
      "outputs": [],
      "payable": false,
      "stateMutability": "nonpayable",
      "type": "function"
    },
    {
      "constant": true,
      "inputs": [],
      "name": "getRemaingRecipientCount",
      "outputs": [
        {
          "internalType": "uint256",
          "name": "",
          "type": "uint256"
        }
      ],
      "payable": false,
      "stateMutability": "view",
      "type": "function"
    },
    {
      "constant": true,
      "inputs": [],
      "name": "getTotalUp",
      "outputs": [
        {
          "internalType": "uint256",
          "name": "",
          "type": "uint256"
        }
      ],
      "payable": false,
      "stateMutability": "view",
      "type": "function"
    },
    {
      "constant": true,
      "inputs": [],
      "name": "getTotalDown",
      "outputs": [
        {
          "internalType": "uint256",
          "name": "",
          "type": "uint256"
        }
      ],
      "payable": false,
      "stateMutability": "view",
      "type": "function"
    },
    {
      "constant": true,
      "inputs": [],
      "name": "getTotal",
      "outputs": [
        {
          "internalType": "uint256",
          "name": "",
          "type": "uint256"
        }
      ],
      "payable": false,
      "stateMutability": "view",
      "type": "function"
    },
    {
      "constant": true,
      "inputs": [],
      "name": "getOwner",
      "outputs": [
        {
          "internalType": "address",
          "name": "",
          "type": "address"
        }
      ],
      "payable": false,
      "stateMutability": "view",
      "type": "function"
    },
    {
      "constant": true,
      "inputs": [],
      "name": "getCreationDate",
      "outputs": [
        {
          "internalType": "uint256",
          "name": "",
          "type": "uint256"
        }
      ],
      "payable": false,
      "stateMutability": "view",
      "type": "function"
    },
    {
      "constant": false,
      "inputs": [],
      "name": "getRemainingTime",
      "outputs": [
        {
          "internalType": "uint256",
          "name": "",
          "type": "uint256"
        }
      ],
      "payable": false,
      "stateMutability": "nonpayable",
      "type": "function"
    },
    {
      "constant": false,
      "inputs": [],
      "name": "hasVoted",
      "outputs": [
        {
          "internalType": "enum Comment.Favor",
          "name": "",
          "type": "uint8"
        }
      ],
      "payable": false,
      "stateMutability": "nonpayable",
      "type": "function"
    }
  ],
  "bytecode": "0x608060405262093a80600655604051610f1a380380610f1a8339818101604052602081101561002d57600080fd5b81019080805190602001909291905050503460008190555060006001819055506000600260006101000a81548160ff0219169083600281111561006c57fe5b021790555080600260016101000a81548173ffffffffffffffffffffffffffffffffffffffff021916908373ffffffffffffffffffffffffffffffffffffffff1602179055504260038190555050610e51806100c96000396000f3fe6080604052600436106100a75760003560e01c806394a1bbbb1161006457806394a1bbbb146101c7578063a8df84df146101de578063ad08f49e146101e8578063b90c1dbb14610263578063d1ab45b41461028e578063efb98bcf146102b9576100a7565b8063016e6fa8146100ac5780631780f0d0146100d75780636482133814610102578063775a25e31461013b578063893d20e81461016657806392d7727c146101bd575b600080fd5b3480156100b857600080fd5b506100c16102e4565b6040518082815260200191505060405180910390f35b3480156100e357600080fd5b506100ec6102ed565b6040518082815260200191505060405180910390f35b34801561010e57600080fd5b506101176102fa565b6040518082600181111561012757fe5b60ff16815260200191505060405180910390f35b34801561014757600080fd5b50610150610351565b6040518082815260200191505060405180910390f35b34801561017257600080fd5b5061017b61035f565b604051808273ffffffffffffffffffffffffffffffffffffffff1673ffffffffffffffffffffffffffffffffffffffff16815260200191505060405180910390f35b6101c5610389565b005b3480156101d357600080fd5b506101dc61061d565b005b6101e6610aa3565b005b3480156101f457600080fd5b506102216004803603602081101561020b57600080fd5b8101908080359060200190929190505050610d37565b604051808273ffffffffffffffffffffffffffffffffffffffff1673ffffffffffffffffffffffffffffffffffffffff16815260200191505060405180910390f35b34801561026f57600080fd5b50610278610d73565b6040518082815260200191505060405180910390f35b34801561029a57600080fd5b506102a3610d7d565b6040518082815260200191505060405180910390f35b3480156102c557600080fd5b506102ce610d87565b6040518082815260200191505060405180910390f35b60008054905090565b6000600480549050905090565b6000600560003373ffffffffffffffffffffffffffffffffffffffff1673ffffffffffffffffffffffffffffffffffffffff16815260200190815260200160002060000160019054906101000a900460ff16905090565b600060015460005401905090565b6000600260019054906101000a900473ffffffffffffffffffffffffffffffffffffffff16905090565b600560003373ffffffffffffffffffffffffffffffffffffffff1673ffffffffffffffffffffffffffffffffffffffff16815260200190815260200160002060000160009054906101000a900460ff161561044c576040517f08c379a00000000000000000000000000000000000000000000000000000000081526004018080602001828103825260118152602001807f596f7520616c726561647920766f74656400000000000000000000000000000081525060200191505060405180910390fd5b6000600281111561045957fe5b600260009054906101000a900460ff16600281111561047457fe5b146104e7576040517f08c379a00000000000000000000000000000000000000000000000000000000081526004018080602001828103825260158152602001807f566f74696e6720696e2077726f6e67207374616765000000000000000000000081525060200191505060405180910390fd5b60043390806001815401808255809150509060018203906000526020600020016000909192909190916101000a81548173ffffffffffffffffffffffffffffffffffffffff021916908373ffffffffffffffffffffffffffffffffffffffff1602179055505060405180606001604052806001151581526020016000600181111561056e57fe5b815260200134815250600560003373ffffffffffffffffffffffffffffffffffffffff1673ffffffffffffffffffffffffffffffffffffffff16815260200190815260200160002060008201518160000160006101000a81548160ff02191690831515021790555060208201518160000160016101000a81548160ff021916908360018111156105fa57fe5b021790555060408201518160010155905050346000808282540192505081905550565b6000600281111561062a57fe5b600260009054906101000a900460ff16600281111561064557fe5b146106b8576040517f08c379a00000000000000000000000000000000000000000000000000000000081526004018080602001828103825260158152602001807f566f74696e6720696e2077726f6e67207374616765000000000000000000000081525060200191505060405180910390fd5b600154600054111561089157600060018111156106d157fe5b600560006004600160048054905003815481106106ea57fe5b9060005260206000200160009054906101000a900473ffffffffffffffffffffffffffffffffffffffff1673ffffffffffffffffffffffffffffffffffffffff1673ffffffffffffffffffffffffffffffffffffffff16815260200190815260200160002060000160019054906101000a900460ff16600181111561076b57fe5b141561088c5760046001600480549050038154811061078657fe5b9060005260206000200160009054906101000a900473ffffffffffffffffffffffffffffffffffffffff1673ffffffffffffffffffffffffffffffffffffffff166108fc60005460005460015401600560006004600160048054905003815481106107ed57fe5b9060005260206000200160009054906101000a900473ffffffffffffffffffffffffffffffffffffffff1673ffffffffffffffffffffffffffffffffffffffff1673ffffffffffffffffffffffffffffffffffffffff16815260200190815260200160002060010154028161085e57fe5b049081150290604051600060405180830381858888f1935050505015801561088a573d6000803e3d6000fd5b505b610a59565b60018081111561089d57fe5b600560006004600160048054905003815481106108b657fe5b9060005260206000200160009054906101000a900473ffffffffffffffffffffffffffffffffffffffff1673ffffffffffffffffffffffffffffffffffffffff1673ffffffffffffffffffffffffffffffffffffffff16815260200190815260200160002060000160019054906101000a900460ff16600181111561093757fe5b1415610a585760046001600480549050038154811061095257fe5b9060005260206000200160009054906101000a900473ffffffffffffffffffffffffffffffffffffffff1673ffffffffffffffffffffffffffffffffffffffff166108fc60015460005460015401600560006004600160048054905003815481106109b957fe5b9060005260206000200160009054906101000a900473ffffffffffffffffffffffffffffffffffffffff1673ffffffffffffffffffffffffffffffffffffffff1673ffffffffffffffffffffffffffffffffffffffff168152602001908152602001600020600101540281610a2a57fe5b049081150290604051600060405180830381858888f19350505050158015610a56573d6000803e3d6000fd5b505b5b6004805480919060019003610a6e9190610dcb565b5060006004805490501415610aa15760028060006101000a81548160ff02191690836002811115610a9b57fe5b02179055505b565b600560003373ffffffffffffffffffffffffffffffffffffffff1673ffffffffffffffffffffffffffffffffffffffff16815260200190815260200160002060000160009054906101000a900460ff1615610b66576040517f08c379a00000000000000000000000000000000000000000000000000000000081526004018080602001828103825260118152602001807f596f7520616c726561647920766f74656400000000000000000000000000000081525060200191505060405180910390fd5b60006002811115610b7357fe5b600260009054906101000a900460ff166002811115610b8e57fe5b14610c01576040517f08c379a00000000000000000000000000000000000000000000000000000000081526004018080602001828103825260158152602001807f566f74696e6720696e2077726f6e67207374616765000000000000000000000081525060200191505060405180910390fd5b60043390806001815401808255809150509060018203906000526020600020016000909192909190916101000a81548173ffffffffffffffffffffffffffffffffffffffff021916908373ffffffffffffffffffffffffffffffffffffffff160217905550506040518060600160405280600115158152602001600180811115610c8757fe5b815260200134815250600560003373ffffffffffffffffffffffffffffffffffffffff1673ffffffffffffffffffffffffffffffffffffffff16815260200190815260200160002060008201518160000160006101000a81548160ff02191690831515021790555060208201518160000160016101000a81548160ff02191690836001811115610d1357fe5b02179055506040820151816001015590505034600160008282540192505081905550565b60048181548110610d4457fe5b906000526020600020016000915054906101000a900473ffffffffffffffffffffffffffffffffffffffff1681565b6000600354905090565b6000600154905090565b60008042600654600354010311610dbd576001600260006101000a81548160ff02191690836002811115610db757fe5b02179055505b426006546003540103905090565b815481835581811115610df257818360005260206000209182019101610df19190610df7565b5b505050565b610e1991905b80821115610e15576000816000905550600101610dfd565b5090565b9056fea265627a7a723158203831903eecadfab8b6ed0049fd8f8441ede67e0b035d7ef048c1f7ac407371e864736f6c63430005100032",
  "source": "pragma solidity 0.5.16;\r\n\r\ncontract Comment {\r\n\r\n    enum Stage{INIT, OPEN, CLOSED}\r\n    enum Favor{UP, DOWN}\r\n\r\n    uint private totalUp;\r\n    uint private totalDown;\r\n    Stage private stage;\r\n    address payable private creator;\r\n    uint256 private creationDate;\r\n\r\n    address[] public votesLUT;\r\n    mapping(address => Vote) private votes;\r\n    uint256 private initDuration = 24*60*60*7;\r\n\r\n\r\n    struct Vote{\r\n        bool exists;\r\n        Favor decision;\r\n        uint stake;\r\n    }\r\n\r\n    constructor (address payable _creator) public payable{\r\n        totalUp = msg.value;\r\n        totalDown = 0;\r\n        stage = Stage.INIT;\r\n        creator = _creator;\r\n        creationDate = block.timestamp;\r\n//        address(uint160(address(this))).transfer(msg.value);\r\n    }\r\n    function upvote() public payable{\r\n        require(!votes[msg.sender].exists, \"You already voted\");\r\n        require(stage == Stage.INIT, \"Voting in wrong stage\");\r\n        votesLUT.push(msg.sender);\r\n        votes[msg.sender] = Vote(true, Favor.UP, msg.value);\r\n        totalUp += msg.value;\r\n    }\r\n    function downvote() public payable{\r\n        require(!votes[msg.sender].exists, \"You already voted\");\r\n        require(stage == Stage.INIT, \"Voting in wrong stage\");\r\n        votesLUT.push(msg.sender);\r\n        votes[msg.sender] = Vote(true, Favor.DOWN, msg.value);\r\n        totalDown += msg.value;\r\n    }\r\n    function payoutSingleRecipient() public{\r\n        require(stage == Stage.INIT, \"Voting in wrong stage\");\r\n        if(totalUp > totalDown){\r\n            if(votes[votesLUT[votesLUT.length-1]].decision == Favor.UP){\r\n                address(uint160(votesLUT[votesLUT.length-1])).transfer(votes[votesLUT[votesLUT.length-1]].stake * (totalDown+totalUp)/totalUp);\r\n            }\r\n        }\r\n        else{\r\n            if(votes[votesLUT[votesLUT.length-1]].decision == Favor.DOWN){\r\n                address(uint160(votesLUT[votesLUT.length-1])).transfer(votes[votesLUT[votesLUT.length-1]].stake * (totalDown+totalUp)/totalDown);\r\n            }\r\n        }\r\n        votesLUT.length--;\r\n        if(votesLUT.length == 0){\r\n            stage = Stage.CLOSED;\r\n        }\r\n    }\r\n    function getRemaingRecipientCount() public view returns(uint) {\r\n        return votesLUT.length;\r\n    }\r\n    function getTotalUp() external view returns (uint) {\r\n        return totalUp;\r\n    }\r\n    function getTotalDown() external view returns (uint) {\r\n        return totalDown;\r\n    }\r\n    function getTotal() external view returns (uint) {\r\n        return totalUp + totalDown;\r\n    }\r\n    function getOwner() external view returns (address){\r\n        return creator;\r\n    }\r\n    function getCreationDate() external view returns (uint256){\r\n        return creationDate;\r\n    }\r\n    function getRemainingTime() external returns (uint256){\r\n        if(creationDate+initDuration-now <= 0){\r\n            stage = Stage.OPEN;\r\n        }\r\n        return creationDate+initDuration-now;\r\n    }\r\n    function hasVoted() external returns (Favor){\r\n        return votes[msg.sender].decision;\r\n    }\r\n}\r\n",
  "sourcePath": "D:\\Documents\\Kryptografie und Systemsicherheit\\tcr_in_github_old\\Solidity\\contracts\\Comment.sol",
  "compiler": {
    "name": "solc",
    "version": "0.5.16+commit.9c3226ce.Emscripten.clang"
  },
  "schemaVersion": "3.3.3",
  "updatedAt": "2021-01-07T14:07:31.412Z",
  "devdoc": {
    "methods": {}
  },
  "userdoc": {
    "methods": {}
  }
}