{
  "contractName": "Counter",
  "abi": [
    {
      "inputs": [],
      "payable": false,
      "stateMutability": "nonpayable",
      "type": "constructor"
    },
    {
      "constant": false,
      "inputs": [],
      "name": "increment",
      "outputs": [],
      "payable": false,
      "stateMutability": "nonpayable",
      "type": "function"
    },
    {
      "constant": true,
      "inputs": [],
      "name": "getCounter",
      "outputs": [
        {
          "internalType": "uint256",
          "name": "",
          "type": "uint256"
        }
      ],
      "payable": false,
      "stateMutability": "view",
      "type": "function"
    }
  ],
  "bytecode": "0x6080604052348015600f57600080fd5b506000808190555060ac806100256000396000f3fe6080604052348015600f57600080fd5b506004361060325760003560e01c80638ada066e146037578063d09de08a146053575b600080fd5b603d605b565b6040518082815260200191505060405180910390f35b60596064565b005b60008054905090565b600080815480929190600101919050555056fea265627a7a72315820b0777a9f38695d61cc89bbc38e9ca877416a9cc778baf67f368cfebbb533b1d664736f6c63430005100032",
  "source": "pragma solidity 0.5.16;\r\n\r\ncontract Counter {\r\n  uint counter;\r\n\r\n  constructor() public {\r\n    counter = 0; // Initialise the counter to 0\r\n  }\r\n\r\n  function increment() public {\r\n    counter++;\r\n  }\r\n\r\n  function getCounter() public view returns (uint) {\r\n    return counter;\r\n  }\r\n}",
  "sourcePath": "D:/Documents/Kryptografie und Systemsicherheit/contract_test/contracts/Counter.sol",
  "compiler": {
    "name": "solc",
    "version": "0.5.16+commit.9c3226ce.Emscripten.clang"
  },
  "schemaVersion": "3.3.2",
  "updatedAt": "2020-11-21T18:44:47.217Z",
  "networkType": "ethereum",
  "devdoc": {
    "methods": {}
  },
  "userdoc": {
    "methods": {}
  }
}