{
  "contractName": "Counter",
  "abi": [
    {
      "inputs": [],
      "payable": false,
      "stateMutability": "nonpayable",
      "type": "constructor"
    },
    {
      "constant": true,
      "inputs": [
        {
          "internalType": "string",
          "name": "",
          "type": "string"
        }
      ],
      "name": "comments",
      "outputs": [
        {
          "internalType": "bool",
          "name": "exists",
          "type": "bool"
        },
        {
          "internalType": "uint256",
          "name": "creationDate",
          "type": "uint256"
        },
        {
          "internalType": "enum Counter.Stage",
          "name": "stage",
          "type": "uint8"
        },
        {
          "internalType": "uint256",
          "name": "poolUp",
          "type": "uint256"
        },
        {
          "internalType": "uint256",
          "name": "poolDown",
          "type": "uint256"
        },
        {
          "internalType": "address payable",
          "name": "commentCreator",
          "type": "address"
        }
      ],
      "payable": false,
      "stateMutability": "view",
      "type": "function"
    },
    {
      "constant": false,
      "inputs": [
        {
          "internalType": "string",
          "name": "commentId",
          "type": "string"
        }
      ],
      "name": "upvote",
      "outputs": [],
      "payable": false,
      "stateMutability": "nonpayable",
      "type": "function"
    },
    {
      "constant": false,
      "inputs": [
        {
          "internalType": "string",
          "name": "commentId",
          "type": "string"
        }
      ],
      "name": "downvote",
      "outputs": [],
      "payable": false,
      "stateMutability": "nonpayable",
      "type": "function"
    },
    {
      "constant": false,
      "inputs": [
        {
          "internalType": "string",
          "name": "commentId",
          "type": "string"
        }
      ],
      "name": "createComment",
      "outputs": [],
      "payable": false,
      "stateMutability": "nonpayable",
      "type": "function"
    },
    {
      "constant": true,
      "inputs": [
        {
          "internalType": "string",
          "name": "commentId",
          "type": "string"
        }
      ],
      "name": "getUpvotes",
      "outputs": [
        {
          "internalType": "uint256",
          "name": "",
          "type": "uint256"
        }
      ],
      "payable": false,
      "stateMutability": "view",
      "type": "function"
    },
    {
      "constant": true,
      "inputs": [
        {
          "internalType": "string",
          "name": "commentId",
          "type": "string"
        }
      ],
      "name": "getDownvotes",
      "outputs": [
        {
          "internalType": "uint256",
          "name": "",
          "type": "uint256"
        }
      ],
      "payable": false,
      "stateMutability": "view",
      "type": "function"
    },
    {
      "constant": true,
      "inputs": [
        {
          "internalType": "string",
          "name": "commentId",
          "type": "string"
        }
      ],
      "name": "getCommentOwner",
      "outputs": [
        {
          "internalType": "address",
          "name": "",
          "type": "address"
        }
      ],
      "payable": false,
      "stateMutability": "view",
      "type": "function"
    },
    {
      "constant": true,
      "inputs": [
        {
          "internalType": "string",
          "name": "commentId",
          "type": "string"
        }
      ],
      "name": "getCreationDate",
      "outputs": [
        {
          "internalType": "uint256",
          "name": "",
          "type": "uint256"
        }
      ],
      "payable": false,
      "stateMutability": "view",
      "type": "function"
    },
    {
      "constant": true,
      "inputs": [
        {
          "internalType": "string",
          "name": "commentId",
          "type": "string"
        }
      ],
      "name": "getRemainingTime",
      "outputs": [
        {
          "internalType": "uint256",
          "name": "",
          "type": "uint256"
        }
      ],
      "payable": false,
      "stateMutability": "view",
      "type": "function"
    }
  ],
  "bytecode": "0x608060405262093a8060015534801561001757600080fd5b50611367806100276000396000f3fe608060405234801561001057600080fd5b50600436106100935760003560e01c806371f130711161006657806371f13071146103ec5780637fb6ea12146104a75780638374d7d5146105d75780639d35722014610692578063d840f3f31461076157610093565b806346f230cb1461009857806358925bd7146101675780635f1555b11461023657806360bde83314610331575b600080fd5b610151600480360360208110156100ae57600080fd5b81019080803590602001906401000000008111156100cb57600080fd5b8201836020820111156100dd57600080fd5b803590602001918460018302840111640100000000831117156100ff57600080fd5b91908080601f016020809104026020016040519081016040528093929190818152602001838380828437600081840152601f19601f820116905080830192505050505050509192919290505050610830565b6040518082815260200191505060405180910390f35b6102206004803603602081101561017d57600080fd5b810190808035906020019064010000000081111561019a57600080fd5b8201836020820111156101ac57600080fd5b803590602001918460018302840111640100000000831117156101ce57600080fd5b91908080601f016020809104026020016040519081016040528093929190818152602001838380828437600081840152601f19601f82011690508083019250505050505050919291929050505061092e565b6040518082815260200191505060405180910390f35b6102ef6004803603602081101561024c57600080fd5b810190808035906020019064010000000081111561026957600080fd5b82018360208201111561027b57600080fd5b8035906020019184600183028401116401000000008311171561029d57600080fd5b91908080601f016020809104026020016040519081016040528093929190818152602001838380828437600081840152601f19601f820116905080830192505050505050509192919290505050610a2b565b604051808273ffffffffffffffffffffffffffffffffffffffff1673ffffffffffffffffffffffffffffffffffffffff16815260200191505060405180910390f35b6103ea6004803603602081101561034757600080fd5b810190808035906020019064010000000081111561036457600080fd5b82018360208201111561037657600080fd5b8035906020019184600183028401116401000000008311171561039857600080fd5b91908080601f016020809104026020016040519081016040528093929190818152602001838380828437600081840152601f19601f820116905080830192505050505050509192919290505050610b47565b005b6104a56004803603602081101561040257600080fd5b810190808035906020019064010000000081111561041f57600080fd5b82018360208201111561043157600080fd5b8035906020019184600183028401116401000000008311171561045357600080fd5b91908080601f016020809104026020016040519081016040528093929190818152602001838380828437600081840152601f19601f820116905080830192505050505050509192919290505050610cf8565b005b610560600480360360208110156104bd57600080fd5b81019080803590602001906401000000008111156104da57600080fd5b8201836020820111156104ec57600080fd5b8035906020019184600183028401116401000000008311171561050e57600080fd5b91908080601f016020809104026020016040519081016040528093929190818152602001838380828437600081840152601f19601f820116905080830192505050505050509192919290505050610ef4565b604051808715151515815260200186815260200185600281111561058057fe5b60ff1681526020018481526020018381526020018273ffffffffffffffffffffffffffffffffffffffff1673ffffffffffffffffffffffffffffffffffffffff168152602001965050505050505060405180910390f35b610690600480360360208110156105ed57600080fd5b810190808035906020019064010000000081111561060a57600080fd5b82018360208201111561061c57600080fd5b8035906020019184600183028401116401000000008311171561063e57600080fd5b91908080601f016020809104026020016040519081016040528093929190818152602001838380828437600081840152601f19601f820116905080830192505050505050509192919290505050610f80565b005b61074b600480360360208110156106a857600080fd5b81019080803590602001906401000000008111156106c557600080fd5b8201836020820111156106d757600080fd5b803590602001918460018302840111640100000000831117156106f957600080fd5b91908080601f016020809104026020016040519081016040528093929190818152602001838380828437600081840152601f19601f820116905080830192505050505050509192919290505050611131565b6040518082815260200191505060405180910390f35b61081a6004803603602081101561077757600080fd5b810190808035906020019064010000000081111561079457600080fd5b8201836020820111156107a657600080fd5b803590602001918460018302840111640100000000831117156107c857600080fd5b91908080601f016020809104026020016040519081016040528093929190818152602001838380828437600081840152601f19601f820116905080830192505050505050509192919290505050611234565b6040518082815260200191505060405180910390f35b600080826040518082805190602001908083835b602083106108675780518252602082019150602081019050602083039250610844565b6001836020036101000a038019825116818451168082178552505050505050905001915050908152602001604051809103902060000160009054906101000a900460ff166108b9576130399050610929565b6000826040518082805190602001908083835b602083106108ef57805182526020820191506020810190506020830392506108cc565b6001836020036101000a03801982511681845116808217855250505050505090500191505090815260200160405180910390206004015490505b919050565b600080826040518082805190602001908083835b602083106109655780518252602082019150602081019050602083039250610942565b6001836020036101000a038019825116818451168082178552505050505050905001915050908152602001604051809103902060000160009054906101000a900460ff166109b65760009050610a26565b6000826040518082805190602001908083835b602083106109ec57805182526020820191506020810190506020830392506109c9565b6001836020036101000a03801982511681845116808217855250505050505090500191505090815260200160405180910390206001015490505b919050565b600080826040518082805190602001908083835b60208310610a625780518252602082019150602081019050602083039250610a3f565b6001836020036101000a038019825116818451168082178552505050505050905001915050908152602001604051809103902060000160009054906101000a900460ff16610ab257309050610b42565b6000826040518082805190602001908083835b60208310610ae85780518252602082019150602081019050602083039250610ac5565b6001836020036101000a038019825116818451168082178552505050505050905001915050908152602001604051809103902060050160009054906101000a900473ffffffffffffffffffffffffffffffffffffffff1690505b919050565b6000816040518082805190602001908083835b60208310610b7d5780518252602082019150602081019050602083039250610b5a565b6001836020036101000a038019825116818451168082178552505050505050905001915050908152602001604051809103902060000160009054906101000a900460ff16610bca57610cf5565b60016000826040518082805190602001908083835b60208310610c025780518252602082019150602081019050602083039250610bdf565b6001836020036101000a038019825116818451168082178552505050505050905001915050908152602001604051809103902060060160003373ffffffffffffffffffffffffffffffffffffffff1673ffffffffffffffffffffffffffffffffffffffff1681526020019081526020016000208190555060016000826040518082805190602001908083835b60208310610cb15780518252602082019150602081019050602083039250610c8e565b6001836020036101000a0380198251168184511680821785525050505050509050019150509081526020016040518091039020600301600082825401925050819055505b50565b6000816040518082805190602001908083835b60208310610d2e5780518252602082019150602081019050602083039250610d0b565b6001836020036101000a038019825116818451168082178552505050505050905001915050908152602001604051809103902060000160009054906101000a900460ff1615610d7c57610ef1565b60003390506040518060c0016040528060011515815260200142815260200160006002811115610da857fe5b815260200160008152602001600081526020018273ffffffffffffffffffffffffffffffffffffffff168152506000836040518082805190602001908083835b60208310610e0b5780518252602082019150602081019050602083039250610de8565b6001836020036101000a038019825116818451168082178552505050505050905001915050908152602001604051809103902060008201518160000160006101000a81548160ff0219169083151502179055506020820151816001015560408201518160020160006101000a81548160ff02191690836002811115610e8c57fe5b0217905550606082015181600301556080820151816004015560a08201518160050160006101000a81548173ffffffffffffffffffffffffffffffffffffffff021916908373ffffffffffffffffffffffffffffffffffffffff160217905550905050505b50565b6000818051602081018201805184825260208301602085012081835280955050505050506000915090508060000160009054906101000a900460ff16908060010154908060020160009054906101000a900460ff16908060030154908060040154908060050160009054906101000a900473ffffffffffffffffffffffffffffffffffffffff16905086565b6000816040518082805190602001908083835b60208310610fb65780518252602082019150602081019050602083039250610f93565b6001836020036101000a038019825116818451168082178552505050505050905001915050908152602001604051809103902060000160009054906101000a900460ff166110035761112e565b60016000826040518082805190602001908083835b6020831061103b5780518252602082019150602081019050602083039250611018565b6001836020036101000a038019825116818451168082178552505050505050905001915050908152602001604051809103902060070160003373ffffffffffffffffffffffffffffffffffffffff1673ffffffffffffffffffffffffffffffffffffffff1681526020019081526020016000208190555060016000826040518082805190602001908083835b602083106110ea57805182526020820191506020810190506020830392506110c7565b6001836020036101000a0380198251168184511680821785525050505050509050019150509081526020016040518091039020600401600082825401925050819055505b50565b600080826040518082805190602001908083835b602083106111685780518252602082019150602081019050602083039250611145565b6001836020036101000a038019825116818451168082178552505050505050905001915050908152602001604051809103902060000160009054906101000a900460ff166111b9576000905061122f565b426001546000846040518082805190602001908083835b602083106111f357805182526020820191506020810190506020830392506111d0565b6001836020036101000a038019825116818451168082178552505050505050905001915050908152602001604051809103902060010154010390505b919050565b600080826040518082805190602001908083835b6020831061126b5780518252602082019150602081019050602083039250611248565b6001836020036101000a038019825116818451168082178552505050505050905001915050908152602001604051809103902060000160009054906101000a900460ff166112bd57613039905061132d565b6000826040518082805190602001908083835b602083106112f357805182526020820191506020810190506020830392506112d0565b6001836020036101000a03801982511681845116808217855250505050505090500191505090815260200160405180910390206003015490505b91905056fea265627a7a723158207ba9b9f71e7416c93d7b0575f03f9425561df065a84bcf03ffa59cdbcad113a664736f6c63430005100032",
  "source": "pragma solidity 0.5.16;\r\n\r\ncontract Counter {\r\n  mapping(string => Comment) public comments;\r\n  uint256 initDuration = 24*60*60*7;\r\n  enum Stage{INIT, OPEN, CLOSED}\r\n\r\n\r\n  struct Comment{\r\n    bool exists;\r\n    uint256 creationDate;\r\n    Stage stage;\r\n    uint poolUp;\r\n    uint poolDown;\r\n    address payable commentCreator;\r\n    mapping(address => uint) up;\r\n    mapping(address => uint) down;\r\n  }\r\n\r\n  constructor() public {\r\n  }\r\n\r\n  function upvote(string memory commentId) public {\r\n    if(!comments[commentId].exists) return;\r\n    comments[commentId].up[msg.sender] = 1;\r\n    comments[commentId].poolUp += 1;\r\n  }\r\n  function downvote(string memory commentId) public {\r\n    if(!comments[commentId].exists) return;\r\n    comments[commentId].down[msg.sender] = 1;\r\n    comments[commentId].poolDown += 1;\r\n  }\r\n  function createComment(string memory commentId) public {\r\n    if(comments[commentId].exists) return;\r\n    address payable fromAddress = address(uint160(msg.sender));\r\n    comments[commentId] = Comment(true, block.timestamp, Stage.INIT, 0, 0, fromAddress);\r\n  }\r\n\r\n  function getUpvotes(string memory commentId) public view returns (uint) {\r\n    if(!comments[commentId].exists) return 12345;\r\n    return comments[commentId].poolUp;\r\n  }\r\n  function getDownvotes(string memory commentId) public view returns (uint) {\r\n    if(!comments[commentId].exists) return 12345;\r\n    return comments[commentId].poolDown;\r\n  }\r\n  function getCommentOwner(string memory commentId) public view returns (address){\r\n    if(!comments[commentId].exists) return address (this);\r\n    return comments[commentId].commentCreator;\r\n  }\r\n  function getCreationDate(string memory commentId) public view returns (uint256){\r\n    if(!comments[commentId].exists) return 0;\r\n    return comments[commentId].creationDate;\r\n  }\r\n  function getRemainingTime(string memory commentId) public view returns (uint256){\r\n    if(!comments[commentId].exists) return 0;\r\n    return comments[commentId].creationDate+initDuration-now;\r\n  }\r\n}",
  "sourcePath": "D:/Documents/Kryptografie und Systemsicherheit/tcr_in_github_old/Solidity/contracts/Counter.sol",
  "compiler": {
    "name": "solc",
    "version": "0.5.16+commit.9c3226ce.Emscripten.clang"
  },
  "schemaVersion": "3.3.3",
  "updatedAt": "2021-01-04T20:51:17.809Z",
  "devdoc": {
    "methods": {}
  },
  "userdoc": {
    "methods": {}
  }
}