{
  "contractName": "Counter",
  "abi": [
    {
      "inputs": [],
      "payable": false,
      "stateMutability": "nonpayable",
      "type": "constructor"
    },
    {
      "constant": true,
      "inputs": [
        {
          "internalType": "string",
          "name": "",
          "type": "string"
        }
      ],
      "name": "comments",
      "outputs": [
        {
          "internalType": "bool",
          "name": "exists",
          "type": "bool"
        },
        {
          "internalType": "enum Counter.Stage",
          "name": "stage",
          "type": "uint8"
        },
        {
          "internalType": "uint256",
          "name": "poolUp",
          "type": "uint256"
        },
        {
          "internalType": "uint256",
          "name": "poolDown",
          "type": "uint256"
        },
        {
          "internalType": "address payable",
          "name": "commentCreator",
          "type": "address"
        }
      ],
      "payable": false,
      "stateMutability": "view",
      "type": "function"
    },
    {
      "constant": false,
      "inputs": [
        {
          "internalType": "string",
          "name": "commentId",
          "type": "string"
        }
      ],
      "name": "upvote",
      "outputs": [],
      "payable": false,
      "stateMutability": "nonpayable",
      "type": "function"
    },
    {
      "constant": false,
      "inputs": [
        {
          "internalType": "string",
          "name": "commentId",
          "type": "string"
        }
      ],
      "name": "downvote",
      "outputs": [],
      "payable": false,
      "stateMutability": "nonpayable",
      "type": "function"
    },
    {
      "constant": false,
      "inputs": [
        {
          "internalType": "string",
          "name": "commentId",
          "type": "string"
        }
      ],
      "name": "createComment",
      "outputs": [],
      "payable": false,
      "stateMutability": "nonpayable",
      "type": "function"
    },
    {
      "constant": true,
      "inputs": [
        {
          "internalType": "string",
          "name": "commentId",
          "type": "string"
        }
      ],
      "name": "getUpvotes",
      "outputs": [
        {
          "internalType": "uint256",
          "name": "",
          "type": "uint256"
        }
      ],
      "payable": false,
      "stateMutability": "view",
      "type": "function"
    },
    {
      "constant": true,
      "inputs": [
        {
          "internalType": "string",
          "name": "commentId",
          "type": "string"
        }
      ],
      "name": "getDownvotes",
      "outputs": [
        {
          "internalType": "uint256",
          "name": "",
          "type": "uint256"
        }
      ],
      "payable": false,
      "stateMutability": "view",
      "type": "function"
    },
    {
      "constant": true,
      "inputs": [
        {
          "internalType": "string",
          "name": "commentId",
          "type": "string"
        }
      ],
      "name": "getCommentOwner",
      "outputs": [
        {
          "internalType": "address",
          "name": "",
          "type": "address"
        }
      ],
      "payable": false,
      "stateMutability": "view",
      "type": "function"
    }
  ],
  "bytecode": "0x608060405234801561001057600080fd5b50610f96806100206000396000f3fe608060405234801561001057600080fd5b506004361061007d5760003560e01c806371f130711161005b57806371f13071146103075780637fb6ea12146103c25780638374d7d5146104eb578063d840f3f3146105a65761007d565b806346f230cb146100825780635f1555b11461015157806360bde8331461024c575b600080fd5b61013b6004803603602081101561009857600080fd5b81019080803590602001906401000000008111156100b557600080fd5b8201836020820111156100c757600080fd5b803590602001918460018302840111640100000000831117156100e957600080fd5b91908080601f016020809104026020016040519081016040528093929190818152602001838380828437600081840152601f19601f820116905080830192505050505050509192919290505050610675565b6040518082815260200191505060405180910390f35b61020a6004803603602081101561016757600080fd5b810190808035906020019064010000000081111561018457600080fd5b82018360208201111561019657600080fd5b803590602001918460018302840111640100000000831117156101b857600080fd5b91908080601f016020809104026020016040519081016040528093929190818152602001838380828437600081840152601f19601f820116905080830192505050505050509192919290505050610773565b604051808273ffffffffffffffffffffffffffffffffffffffff1673ffffffffffffffffffffffffffffffffffffffff16815260200191505060405180910390f35b6103056004803603602081101561026257600080fd5b810190808035906020019064010000000081111561027f57600080fd5b82018360208201111561029157600080fd5b803590602001918460018302840111640100000000831117156102b357600080fd5b91908080601f016020809104026020016040519081016040528093929190818152602001838380828437600081840152601f19601f82011690508083019250505050505050919291929050505061088f565b005b6103c06004803603602081101561031d57600080fd5b810190808035906020019064010000000081111561033a57600080fd5b82018360208201111561034c57600080fd5b8035906020019184600183028401116401000000008311171561036e57600080fd5b91908080601f016020809104026020016040519081016040528093929190818152602001838380828437600081840152601f19601f820116905080830192505050505050509192919290505050610a40565b005b61047b600480360360208110156103d857600080fd5b81019080803590602001906401000000008111156103f557600080fd5b82018360208201111561040757600080fd5b8035906020019184600183028401116401000000008311171561042957600080fd5b91908080601f016020809104026020016040519081016040528093929190818152602001838380828437600081840152601f19601f820116905080830192505050505050509192919290505050610c2c565b604051808615151515815260200185600281111561049557fe5b60ff1681526020018481526020018381526020018273ffffffffffffffffffffffffffffffffffffffff1673ffffffffffffffffffffffffffffffffffffffff1681526020019550505050505060405180910390f35b6105a46004803603602081101561050157600080fd5b810190808035906020019064010000000081111561051e57600080fd5b82018360208201111561053057600080fd5b8035906020019184600183028401116401000000008311171561055257600080fd5b91908080601f016020809104026020016040519081016040528093929190818152602001838380828437600081840152601f19601f820116905080830192505050505050509192919290505050610cb2565b005b61065f600480360360208110156105bc57600080fd5b81019080803590602001906401000000008111156105d957600080fd5b8201836020820111156105eb57600080fd5b8035906020019184600183028401116401000000008311171561060d57600080fd5b91908080601f016020809104026020016040519081016040528093929190818152602001838380828437600081840152601f19601f820116905080830192505050505050509192919290505050610e63565b6040518082815260200191505060405180910390f35b600080826040518082805190602001908083835b602083106106ac5780518252602082019150602081019050602083039250610689565b6001836020036101000a038019825116818451168082178552505050505050905001915050908152602001604051809103902060000160009054906101000a900460ff166106fe57613039905061076e565b6000826040518082805190602001908083835b602083106107345780518252602082019150602081019050602083039250610711565b6001836020036101000a03801982511681845116808217855250505050505090500191505090815260200160405180910390206002015490505b919050565b600080826040518082805190602001908083835b602083106107aa5780518252602082019150602081019050602083039250610787565b6001836020036101000a038019825116818451168082178552505050505050905001915050908152602001604051809103902060000160009054906101000a900460ff166107fa5730905061088a565b6000826040518082805190602001908083835b60208310610830578051825260208201915060208101905060208303925061080d565b6001836020036101000a038019825116818451168082178552505050505050905001915050908152602001604051809103902060030160009054906101000a900473ffffffffffffffffffffffffffffffffffffffff1690505b919050565b6000816040518082805190602001908083835b602083106108c557805182526020820191506020810190506020830392506108a2565b6001836020036101000a038019825116818451168082178552505050505050905001915050908152602001604051809103902060000160009054906101000a900460ff1661091257610a3d565b60016000826040518082805190602001908083835b6020831061094a5780518252602082019150602081019050602083039250610927565b6001836020036101000a038019825116818451168082178552505050505050905001915050908152602001604051809103902060040160003373ffffffffffffffffffffffffffffffffffffffff1673ffffffffffffffffffffffffffffffffffffffff1681526020019081526020016000208190555060016000826040518082805190602001908083835b602083106109f957805182526020820191506020810190506020830392506109d6565b6001836020036101000a0380198251168184511680821785525050505050509050019150509081526020016040518091039020600101600082825401925050819055505b50565b6000816040518082805190602001908083835b60208310610a765780518252602082019150602081019050602083039250610a53565b6001836020036101000a038019825116818451168082178552505050505050905001915050908152602001604051809103902060000160009054906101000a900460ff1615610ac457610c29565b60003390506040518060a0016040528060011515815260200160006002811115610aea57fe5b815260200160008152602001600081526020018273ffffffffffffffffffffffffffffffffffffffff168152506000836040518082805190602001908083835b60208310610b4d5780518252602082019150602081019050602083039250610b2a565b6001836020036101000a038019825116818451168082178552505050505050905001915050908152602001604051809103902060008201518160000160006101000a81548160ff02191690831515021790555060208201518160000160016101000a81548160ff02191690836002811115610bc457fe5b0217905550604082015181600101556060820151816002015560808201518160030160006101000a81548173ffffffffffffffffffffffffffffffffffffffff021916908373ffffffffffffffffffffffffffffffffffffffff160217905550905050505b50565b6000818051602081018201805184825260208301602085012081835280955050505050506000915090508060000160009054906101000a900460ff16908060000160019054906101000a900460ff16908060010154908060020154908060030160009054906101000a900473ffffffffffffffffffffffffffffffffffffffff16905085565b6000816040518082805190602001908083835b60208310610ce85780518252602082019150602081019050602083039250610cc5565b6001836020036101000a038019825116818451168082178552505050505050905001915050908152602001604051809103902060000160009054906101000a900460ff16610d3557610e60565b60016000826040518082805190602001908083835b60208310610d6d5780518252602082019150602081019050602083039250610d4a565b6001836020036101000a038019825116818451168082178552505050505050905001915050908152602001604051809103902060050160003373ffffffffffffffffffffffffffffffffffffffff1673ffffffffffffffffffffffffffffffffffffffff1681526020019081526020016000208190555060016000826040518082805190602001908083835b60208310610e1c5780518252602082019150602081019050602083039250610df9565b6001836020036101000a0380198251168184511680821785525050505050509050019150509081526020016040518091039020600201600082825401925050819055505b50565b600080826040518082805190602001908083835b60208310610e9a5780518252602082019150602081019050602083039250610e77565b6001836020036101000a038019825116818451168082178552505050505050905001915050908152602001604051809103902060000160009054906101000a900460ff16610eec576130399050610f5c565b6000826040518082805190602001908083835b60208310610f225780518252602082019150602081019050602083039250610eff565b6001836020036101000a03801982511681845116808217855250505050505090500191505090815260200160405180910390206001015490505b91905056fea265627a7a72315820dd3dc8144f8d63c7a840ad251589fa5cbf4b229c2030d4e7e248a1caa1bfe33364736f6c63430005100032",
  "source": "pragma solidity 0.5.16;\r\n\r\ncontract Counter {\r\n  mapping(string => Comment) public comments;\r\n  enum Stage{INIT, OPEN, CLOSED}\r\n\r\n\r\n  struct Comment{\r\n    bool exists;\r\n    Stage stage;\r\n    uint poolUp;\r\n    uint poolDown;\r\n    address payable commentCreator;\r\n    mapping(address => uint) up;\r\n    mapping(address => uint) down;\r\n  }\r\n\r\n  constructor() public {\r\n  }\r\n\r\n  function upvote(string memory commentId) public {\r\n    if(!comments[commentId].exists) return;\r\n    comments[commentId].up[msg.sender] = 1;\r\n    comments[commentId].poolUp += 1;\r\n  }\r\n  function downvote(string memory commentId) public {\r\n    if(!comments[commentId].exists) return;\r\n    comments[commentId].down[msg.sender] = 1;\r\n    comments[commentId].poolDown += 1;\r\n  }\r\n  function createComment(string memory commentId) public {\r\n    if(comments[commentId].exists) return;\r\n    address payable fromAddress = address(uint160(msg.sender));\r\n    comments[commentId] = Comment(true, Stage.INIT, 0, 0, fromAddress);\r\n  }\r\n\r\n  function getUpvotes(string memory commentId) public view returns (uint) {\r\n    if(!comments[commentId].exists) return 12345;\r\n    return comments[commentId].poolUp;\r\n  }\r\n  function getDownvotes(string memory commentId) public view returns (uint) {\r\n    if(!comments[commentId].exists) return 12345;\r\n    return comments[commentId].poolDown;\r\n  }\r\n  function getCommentOwner(string memory commentId) public view returns (address){\r\n    if(!comments[commentId].exists) return address (this);\r\n    return comments[commentId].commentCreator;\r\n  }\r\n\r\n}",
  "sourcePath": "D:/Documents/Kryptografie und Systemsicherheit/tcr_in_github/Solidity/contracts/Counter.sol",
  "compiler": {
    "name": "solc",
    "version": "0.5.16+commit.9c3226ce.Emscripten.clang"
  },
  "schemaVersion": "3.3.2",
  "updatedAt": "2020-12-16T17:07:41.683Z",
  "networkType": "ethereum",
  "devdoc": {
    "methods": {}
  },
  "userdoc": {
    "methods": {}
  }
}