{
  "contractName": "Counter",
  "abi": [
    {
      "inputs": [],
      "payable": false,
      "stateMutability": "nonpayable",
      "type": "constructor"
    },
    {
      "constant": true,
      "inputs": [
        {
          "internalType": "string",
          "name": "",
          "type": "string"
        }
      ],
      "name": "comments",
      "outputs": [
        {
          "internalType": "bool",
          "name": "exists",
          "type": "bool"
        },
        {
          "internalType": "enum Counter.Stage",
          "name": "stage",
          "type": "uint8"
        },
        {
          "internalType": "uint256",
          "name": "up",
          "type": "uint256"
        },
        {
          "internalType": "uint256",
          "name": "down",
          "type": "uint256"
        }
      ],
      "payable": false,
      "stateMutability": "view",
      "type": "function"
    },
    {
      "constant": false,
      "inputs": [
        {
          "internalType": "string",
          "name": "commentId",
          "type": "string"
        }
      ],
      "name": "upvote",
      "outputs": [],
      "payable": false,
      "stateMutability": "nonpayable",
      "type": "function"
    },
    {
      "constant": false,
      "inputs": [
        {
          "internalType": "string",
          "name": "commentId",
          "type": "string"
        }
      ],
      "name": "downvote",
      "outputs": [],
      "payable": false,
      "stateMutability": "nonpayable",
      "type": "function"
    },
    {
      "constant": false,
      "inputs": [
        {
          "internalType": "string",
          "name": "commentId",
          "type": "string"
        }
      ],
      "name": "createComment",
      "outputs": [],
      "payable": false,
      "stateMutability": "nonpayable",
      "type": "function"
    },
    {
      "constant": true,
      "inputs": [
        {
          "internalType": "string",
          "name": "commentId",
          "type": "string"
        }
      ],
      "name": "getUpvotes",
      "outputs": [
        {
          "internalType": "uint256",
          "name": "",
          "type": "uint256"
        }
      ],
      "payable": false,
      "stateMutability": "view",
      "type": "function"
    },
    {
      "constant": true,
      "inputs": [
        {
          "internalType": "string",
          "name": "commentId",
          "type": "string"
        }
      ],
      "name": "getDownvotes",
      "outputs": [
        {
          "internalType": "uint256",
          "name": "",
          "type": "uint256"
        }
      ],
      "payable": false,
      "stateMutability": "view",
      "type": "function"
    }
  ],
  "bytecode": "0x608060405234801561001057600080fd5b50610b4e806100206000396000f3fe608060405234801561001057600080fd5b50600436106100625760003560e01c806346f230cb1461006757806360bde8331461013657806371f13071146101f15780637fb6ea12146102ac5780638374d7d5146103a2578063d840f3f31461045d575b600080fd5b6101206004803603602081101561007d57600080fd5b810190808035906020019064010000000081111561009a57600080fd5b8201836020820111156100ac57600080fd5b803590602001918460018302840111640100000000831117156100ce57600080fd5b91908080601f016020809104026020016040519081016040528093929190818152602001838380828437600081840152601f19601f82011690508083019250505050505050919291929050505061052c565b6040518082815260200191505060405180910390f35b6101ef6004803603602081101561014c57600080fd5b810190808035906020019064010000000081111561016957600080fd5b82018360208201111561017b57600080fd5b8035906020019184600183028401116401000000008311171561019d57600080fd5b91908080601f016020809104026020016040519081016040528093929190818152602001838380828437600081840152601f19601f82011690508083019250505050505050919291929050505061062a565b005b6102aa6004803603602081101561020757600080fd5b810190808035906020019064010000000081111561022457600080fd5b82018360208201111561023657600080fd5b8035906020019184600183028401116401000000008311171561025857600080fd5b91908080601f016020809104026020016040519081016040528093929190818152602001838380828437600081840152601f19601f820116905080830192505050505050509192919290505050610731565b005b610365600480360360208110156102c257600080fd5b81019080803590602001906401000000008111156102df57600080fd5b8201836020820111156102f157600080fd5b8035906020019184600183028401116401000000008311171561031357600080fd5b91908080601f016020809104026020016040519081016040528093929190818152602001838380828437600081840152601f19601f8201169050808301925050505050505091929192905050506108b4565b604051808515151515815260200184600281111561037f57fe5b60ff16815260200183815260200182815260200194505050505060405180910390f35b61045b600480360360208110156103b857600080fd5b81019080803590602001906401000000008111156103d557600080fd5b8201836020820111156103e757600080fd5b8035906020019184600183028401116401000000008311171561040957600080fd5b91908080601f016020809104026020016040519081016040528093929190818152602001838380828437600081840152601f19601f820116905080830192505050505050509192919290505050610914565b005b6105166004803603602081101561047357600080fd5b810190808035906020019064010000000081111561049057600080fd5b8201836020820111156104a257600080fd5b803590602001918460018302840111640100000000831117156104c457600080fd5b91908080601f016020809104026020016040519081016040528093929190818152602001838380828437600081840152601f19601f820116905080830192505050505050509192919290505050610a1b565b6040518082815260200191505060405180910390f35b600080826040518082805190602001908083835b602083106105635780518252602082019150602081019050602083039250610540565b6001836020036101000a038019825116818451168082178552505050505050905001915050908152602001604051809103902060000160009054906101000a900460ff166105b5576130399050610625565b6000826040518082805190602001908083835b602083106105eb57805182526020820191506020810190506020830392506105c8565b6001836020036101000a03801982511681845116808217855250505050505090500191505090815260200160405180910390206002015490505b919050565b6000816040518082805190602001908083835b60208310610660578051825260208201915060208101905060208303925061063d565b6001836020036101000a038019825116818451168082178552505050505050905001915050908152602001604051809103902060000160009054906101000a900460ff166106b2576106b181610731565b5b6000816040518082805190602001908083835b602083106106e857805182526020820191506020810190506020830392506106c5565b6001836020036101000a03801982511681845116808217855250505050505090500191505090815260200160405180910390206001016000815480929190600101919050555050565b6000816040518082805190602001908083835b602083106107675780518252602082019150602081019050602083039250610744565b6001836020036101000a038019825116818451168082178552505050505050905001915050908152602001604051809103902060000160009054906101000a900460ff16156107b5576108b1565b6040518060800160405280600115158152602001600060028111156107d657fe5b81526020016000815260200160008152506000826040518082805190602001908083835b6020831061081d57805182526020820191506020810190506020830392506107fa565b6001836020036101000a038019825116818451168082178552505050505050905001915050908152602001604051809103902060008201518160000160006101000a81548160ff02191690831515021790555060208201518160000160016101000a81548160ff0219169083600281111561089457fe5b021790555060408201518160010155606082015181600201559050505b50565b6000818051602081018201805184825260208301602085012081835280955050505050506000915090508060000160009054906101000a900460ff16908060000160019054906101000a900460ff16908060010154908060020154905084565b6000816040518082805190602001908083835b6020831061094a5780518252602082019150602081019050602083039250610927565b6001836020036101000a038019825116818451168082178552505050505050905001915050908152602001604051809103902060000160009054906101000a900460ff1661099c5761099b81610731565b5b6000816040518082805190602001908083835b602083106109d257805182526020820191506020810190506020830392506109af565b6001836020036101000a03801982511681845116808217855250505050505090500191505090815260200160405180910390206002016000815480929190600101919050555050565b600080826040518082805190602001908083835b60208310610a525780518252602082019150602081019050602083039250610a2f565b6001836020036101000a038019825116818451168082178552505050505050905001915050908152602001604051809103902060000160009054906101000a900460ff16610aa4576130399050610b14565b6000826040518082805190602001908083835b60208310610ada5780518252602082019150602081019050602083039250610ab7565b6001836020036101000a03801982511681845116808217855250505050505090500191505090815260200160405180910390206001015490505b91905056fea265627a7a7231582040b0265aafe3c93bcecdced624f1e8c857124e3723becc732a809311d460856e64736f6c63430005100032",
  "source": "pragma solidity 0.5.16;\r\n\r\ncontract Counter {\r\n  mapping(string => Comment) public comments;\r\n  enum Stage{INIT, OPEN, CLOSED}\r\n  struct Comment{\r\n    bool exists;\r\n    Stage stage;\r\n    uint up;\r\n    uint down;\r\n  }\r\n\r\n  constructor() public {\r\n  }\r\n\r\n\r\n  function upvote(string memory commentId) public {\r\n    if(!comments[commentId].exists) createComment(commentId);\r\n    comments[commentId].up++;\r\n  }\r\n  function downvote(string memory commentId) public {\r\n    if(!comments[commentId].exists) createComment(commentId);\r\n    comments[commentId].down++;\r\n  }\r\n  function createComment(string memory commentId) public {\r\n    if(comments[commentId].exists) return;\r\n    comments[commentId] = Comment(true, Stage.INIT, 0, 0);\r\n  }\r\n\r\n  function getUpvotes(string memory commentId) public view returns (uint) {\r\n    if(!comments[commentId].exists) return 12345;\r\n    return comments[commentId].up;\r\n  }\r\n  function getDownvotes(string memory commentId) public view returns (uint) {\r\n    if(!comments[commentId].exists) return 12345;\r\n    return comments[commentId].down;\r\n  }\r\n}",
  "sourcePath": "D:/Documents/Kryptografie und Systemsicherheit/tcr_in_github/Solidity/contracts/Counter.sol",
  "compiler": {
    "name": "solc",
    "version": "0.5.16+commit.9c3226ce.Emscripten.clang"
  },
  "schemaVersion": "3.3.2",
  "updatedAt": "2020-11-29T15:01:35.704Z",
  "networkType": "ethereum",
  "devdoc": {
    "methods": {}
  },
  "userdoc": {
    "methods": {}
  }
}