{
  "contractName": "Counter",
  "abi": [
    {
      "inputs": [],
      "payable": false,
      "stateMutability": "nonpayable",
      "type": "constructor"
    },
    {
      "constant": true,
      "inputs": [
        {
          "internalType": "string",
          "name": "",
          "type": "string"
        }
      ],
      "name": "comments",
      "outputs": [
        {
          "internalType": "bool",
          "name": "exists",
          "type": "bool"
        },
        {
          "internalType": "enum Counter.Stage",
          "name": "stage",
          "type": "uint8"
        },
        {
          "internalType": "uint256",
          "name": "up",
          "type": "uint256"
        },
        {
          "internalType": "uint256",
          "name": "down",
          "type": "uint256"
        },
        {
          "internalType": "address",
          "name": "creator",
          "type": "address"
        }
      ],
      "payable": false,
      "stateMutability": "view",
      "type": "function"
    },
    {
      "constant": false,
      "inputs": [
        {
          "internalType": "string",
          "name": "commentId",
          "type": "string"
        }
      ],
      "name": "upvote",
      "outputs": [],
      "payable": false,
      "stateMutability": "nonpayable",
      "type": "function"
    },
    {
      "constant": false,
      "inputs": [
        {
          "internalType": "string",
          "name": "commentId",
          "type": "string"
        }
      ],
      "name": "downvote",
      "outputs": [],
      "payable": false,
      "stateMutability": "nonpayable",
      "type": "function"
    },
    {
      "constant": false,
      "inputs": [
        {
          "internalType": "string",
          "name": "commentId",
          "type": "string"
        }
      ],
      "name": "createComment",
      "outputs": [],
      "payable": false,
      "stateMutability": "nonpayable",
      "type": "function"
    },
    {
      "constant": false,
      "inputs": [
        {
          "internalType": "string",
          "name": "commentId",
          "type": "string"
        }
      ],
      "name": "createCommentWithOwner",
      "outputs": [],
      "payable": false,
      "stateMutability": "nonpayable",
      "type": "function"
    },
    {
      "constant": true,
      "inputs": [
        {
          "internalType": "string",
          "name": "commentId",
          "type": "string"
        }
      ],
      "name": "getUpvotes",
      "outputs": [
        {
          "internalType": "uint256",
          "name": "",
          "type": "uint256"
        }
      ],
      "payable": false,
      "stateMutability": "view",
      "type": "function"
    },
    {
      "constant": true,
      "inputs": [
        {
          "internalType": "string",
          "name": "commentId",
          "type": "string"
        }
      ],
      "name": "getDownvotes",
      "outputs": [
        {
          "internalType": "uint256",
          "name": "",
          "type": "uint256"
        }
      ],
      "payable": false,
      "stateMutability": "view",
      "type": "function"
    },
    {
      "constant": true,
      "inputs": [
        {
          "internalType": "string",
          "name": "commentId",
          "type": "string"
        }
      ],
      "name": "getCommentOwner",
      "outputs": [
        {
          "internalType": "string",
          "name": "",
          "type": "string"
        }
      ],
      "payable": false,
      "stateMutability": "view",
      "type": "function"
    }
  ],
  "bytecode": "0x608060405234801561001057600080fd5b506111a5806100206000396000f3fe608060405234801561001057600080fd5b50600436106100885760003560e01c806371f130711161005b57806371f13071146104065780637fb6ea12146104c15780638374d7d5146105ea578063d840f3f3146106a557610088565b80630fc041db1461008d57806346f230cb146101485780635f1555b11461021757806360bde8331461034b575b600080fd5b610146600480360360208110156100a357600080fd5b81019080803590602001906401000000008111156100c057600080fd5b8201836020820111156100d257600080fd5b803590602001918460018302840111640100000000831117156100f457600080fd5b91908080601f016020809104026020016040519081016040528093929190818152602001838380828437600081840152601f19601f820116905080830192505050505050509192919290505050610774565b005b6102016004803603602081101561015e57600080fd5b810190808035906020019064010000000081111561017b57600080fd5b82018360208201111561018d57600080fd5b803590602001918460018302840111640100000000831117156101af57600080fd5b91908080601f016020809104026020016040519081016040528093929190818152602001838380828437600081840152601f19601f82011690508083019250505050505050919291929050505061095a565b6040518082815260200191505060405180910390f35b6102d06004803603602081101561022d57600080fd5b810190808035906020019064010000000081111561024a57600080fd5b82018360208201111561025c57600080fd5b8035906020019184600183028401116401000000008311171561027e57600080fd5b91908080601f016020809104026020016040519081016040528093929190818152602001838380828437600081840152601f19601f820116905080830192505050505050509192919290505050610a58565b6040518080602001828103825283818151815260200191508051906020019080838360005b838110156103105780820151818401526020810190506102f5565b50505050905090810190601f16801561033d5780820380516001836020036101000a031916815260200191505b509250505060405180910390f35b6104046004803603602081101561036157600080fd5b810190808035906020019064010000000081111561037e57600080fd5b82018360208201111561039057600080fd5b803590602001918460018302840111640100000000831117156103b257600080fd5b91908080601f016020809104026020016040519081016040528093929190818152602001838380828437600081840152601f19601f820116905080830192505050505050509192919290505050610bf8565b005b6104bf6004803603602081101561041c57600080fd5b810190808035906020019064010000000081111561043957600080fd5b82018360208201111561044b57600080fd5b8035906020019184600183028401116401000000008311171561046d57600080fd5b91908080601f016020809104026020016040519081016040528093929190818152602001838380828437600081840152601f19601f820116905080830192505050505050509192919290505050610cff565b005b61057a600480360360208110156104d757600080fd5b81019080803590602001906401000000008111156104f457600080fd5b82018360208201111561050657600080fd5b8035906020019184600183028401116401000000008311171561052857600080fd5b91908080601f016020809104026020016040519081016040528093929190818152602001838380828437600081840152601f19601f820116905080830192505050505050509192919290505050610ee5565b604051808615151515815260200185600281111561059457fe5b60ff1681526020018481526020018381526020018273ffffffffffffffffffffffffffffffffffffffff1673ffffffffffffffffffffffffffffffffffffffff1681526020019550505050505060405180910390f35b6106a36004803603602081101561060057600080fd5b810190808035906020019064010000000081111561061d57600080fd5b82018360208201111561062f57600080fd5b8035906020019184600183028401116401000000008311171561065157600080fd5b91908080601f016020809104026020016040519081016040528093929190818152602001838380828437600081840152601f19601f820116905080830192505050505050509192919290505050610f6b565b005b61075e600480360360208110156106bb57600080fd5b81019080803590602001906401000000008111156106d857600080fd5b8201836020820111156106ea57600080fd5b8035906020019184600183028401116401000000008311171561070c57600080fd5b91908080601f016020809104026020016040519081016040528093929190818152602001838380828437600081840152601f19601f820116905080830192505050505050509192919290505050611072565b6040518082815260200191505060405180910390f35b6000816040518082805190602001908083835b602083106107aa5780518252602082019150602081019050602083039250610787565b6001836020036101000a038019825116818451168082178552505050505050905001915050908152602001604051809103902060000160009054906101000a900460ff16156107f857610957565b6040518060a001604052806001151581526020016000600281111561081957fe5b815260200160008152602001600081526020013373ffffffffffffffffffffffffffffffffffffffff168152506000826040518082805190602001908083835b6020831061087c5780518252602082019150602081019050602083039250610859565b6001836020036101000a038019825116818451168082178552505050505050905001915050908152602001604051809103902060008201518160000160006101000a81548160ff02191690831515021790555060208201518160000160016101000a81548160ff021916908360028111156108f357fe5b0217905550604082015181600101556060820151816002015560808201518160030160006101000a81548173ffffffffffffffffffffffffffffffffffffffff021916908373ffffffffffffffffffffffffffffffffffffffff1602179055509050505b50565b600080826040518082805190602001908083835b60208310610991578051825260208201915060208101905060208303925061096e565b6001836020036101000a038019825116818451168082178552505050505050905001915050908152602001604051809103902060000160009054906101000a900460ff166109e3576130399050610a53565b6000826040518082805190602001908083835b60208310610a1957805182526020820191506020810190506020830392506109f6565b6001836020036101000a03801982511681845116808217855250505050505090500191505090815260200160405180910390206002015490505b919050565b60606000826040518082805190602001908083835b60208310610a905780518252602082019150602081019050602083039250610a6d565b6001836020036101000a038019825116818451168082178552505050505050905001915050908152602001604051809103902060000160009054906101000a900460ff16610b15576040518060400160405280600881526020017f4e4f204f574e45520000000000000000000000000000000000000000000000008152509050610bf3565b6000826040518082805190602001908083835b60208310610b4b5780518252602082019150602081019050602083039250610b28565b6001836020036101000a038019825116818451168082178552505050505050905001915050908152602001604051809103902060030160009054906101000a900473ffffffffffffffffffffffffffffffffffffffff16604051602001808273ffffffffffffffffffffffffffffffffffffffff1673ffffffffffffffffffffffffffffffffffffffff1660601b815260140191505060405160208183030381529060405290505b919050565b6000816040518082805190602001908083835b60208310610c2e5780518252602082019150602081019050602083039250610c0b565b6001836020036101000a038019825116818451168082178552505050505050905001915050908152602001604051809103902060000160009054906101000a900460ff16610c8057610c7f81610cff565b5b6000816040518082805190602001908083835b60208310610cb65780518252602082019150602081019050602083039250610c93565b6001836020036101000a03801982511681845116808217855250505050505090500191505090815260200160405180910390206001016000815480929190600101919050555050565b6000816040518082805190602001908083835b60208310610d355780518252602082019150602081019050602083039250610d12565b6001836020036101000a038019825116818451168082178552505050505050905001915050908152602001604051809103902060000160009054906101000a900460ff1615610d8357610ee2565b6040518060a0016040528060011515815260200160006002811115610da457fe5b815260200160008152602001600081526020013073ffffffffffffffffffffffffffffffffffffffff168152506000826040518082805190602001908083835b60208310610e075780518252602082019150602081019050602083039250610de4565b6001836020036101000a038019825116818451168082178552505050505050905001915050908152602001604051809103902060008201518160000160006101000a81548160ff02191690831515021790555060208201518160000160016101000a81548160ff02191690836002811115610e7e57fe5b0217905550604082015181600101556060820151816002015560808201518160030160006101000a81548173ffffffffffffffffffffffffffffffffffffffff021916908373ffffffffffffffffffffffffffffffffffffffff1602179055509050505b50565b6000818051602081018201805184825260208301602085012081835280955050505050506000915090508060000160009054906101000a900460ff16908060000160019054906101000a900460ff16908060010154908060020154908060030160009054906101000a900473ffffffffffffffffffffffffffffffffffffffff16905085565b6000816040518082805190602001908083835b60208310610fa15780518252602082019150602081019050602083039250610f7e565b6001836020036101000a038019825116818451168082178552505050505050905001915050908152602001604051809103902060000160009054906101000a900460ff16610ff357610ff281610cff565b5b6000816040518082805190602001908083835b602083106110295780518252602082019150602081019050602083039250611006565b6001836020036101000a03801982511681845116808217855250505050505090500191505090815260200160405180910390206002016000815480929190600101919050555050565b600080826040518082805190602001908083835b602083106110a95780518252602082019150602081019050602083039250611086565b6001836020036101000a038019825116818451168082178552505050505050905001915050908152602001604051809103902060000160009054906101000a900460ff166110fb57613039905061116b565b6000826040518082805190602001908083835b60208310611131578051825260208201915060208101905060208303925061110e565b6001836020036101000a03801982511681845116808217855250505050505090500191505090815260200160405180910390206001015490505b91905056fea265627a7a72315820c783be43d230cf5896a317e4a4fbb3159035b8f19367465a41c7651c5f66c90e64736f6c63430005100032",
  "source": "pragma solidity 0.5.16;\r\n\r\ncontract Counter {\r\n  mapping(string => Comment) public comments;\r\n  enum Stage{INIT, OPEN, CLOSED}\r\n\r\n  struct Comment{\r\n    bool exists;\r\n    Stage stage;\r\n    uint up;\r\n    uint down;\r\n    address creator;\r\n  }\r\n\r\n  constructor() public {\r\n  }\r\n\r\n\r\n  function upvote(string memory commentId) public {\r\n    if(!comments[commentId].exists) createComment(commentId);\r\n    comments[commentId].up++;\r\n  }\r\n  function downvote(string memory commentId) public {\r\n    if(!comments[commentId].exists) createComment(commentId);\r\n    comments[commentId].down++;\r\n  }\r\n  function createComment(string memory commentId) public {\r\n    if(comments[commentId].exists) return;\r\n    comments[commentId] = Comment(true, Stage.INIT, 0, 0, address (this));\r\n  }\r\n  function createCommentWithOwner(string memory commentId) public {\r\n    if(comments[commentId].exists) return;\r\n    comments[commentId] = Comment(true, Stage.INIT, 0, 0, msg.sender);\r\n\r\n  }\r\n\r\n  function getUpvotes(string memory commentId) public view returns (uint) {\r\n    if(!comments[commentId].exists) return 12345;\r\n    return comments[commentId].up;\r\n  }\r\n  function getDownvotes(string memory commentId) public view returns (uint) {\r\n    if(!comments[commentId].exists) return 12345;\r\n    return comments[commentId].down;\r\n  }\r\n  function getCommentOwner(string memory commentId) public view returns (string memory){\r\n    if(!comments[commentId].exists) return \"NO OWNER\";\r\n    return string(abi.encodePacked(comments[commentId].creator));\r\n  }\r\n\r\n}",
  "sourcePath": "D:/Documents/Kryptografie und Systemsicherheit/tcr_in_github/Solidity/contracts/Counter.sol",
  "compiler": {
    "name": "solc",
    "version": "0.5.16+commit.9c3226ce.Emscripten.clang"
  },
  "schemaVersion": "3.3.2",
  "updatedAt": "2020-12-12T20:26:21.779Z",
  "networkType": "ethereum",
  "devdoc": {
    "methods": {}
  },
  "userdoc": {
    "methods": {}
  }
}